{"abi":[{"inputs":[{"internalType":"uint256","name":"minimumAmount","type":"uint256"}],"name":"createCrowdFunding","outputs":[],"stateMutability":"nonpayable","type":"function"},{"inputs":[],"name":"getListOfCrowdFunding","outputs":[{"internalType":"address[]","name":"","type":"address[]"}],"stateMutability":"view","type":"function"}],"devdoc":{"kind":"dev","methods":{},"version":1},"evm":{"assembly":"    /* \"crowdFunding.sol\":59:459  contract crowdFundingFactory{... */\n  mstore(0x40, 0x80)\n  callvalue\n  dup1\n  iszero\n  tag_1\n  jumpi\n  0x00\n  dup1\n  revert\ntag_1:\n  pop\n  dataSize(sub_0)\n  dup1\n  dataOffset(sub_0)\n  0x00\n  codecopy\n  0x00\n  return\nstop\n\nsub_0: assembly {\n        /* \"crowdFunding.sol\":59:459  contract crowdFundingFactory{... */\n      mstore(0x40, 0x80)\n      callvalue\n      dup1\n      iszero\n      tag_1\n      jumpi\n      0x00\n      dup1\n      revert\n    tag_1:\n      pop\n      jumpi(tag_2, lt(calldatasize, 0x04))\n      shr(0xe0, calldataload(0x00))\n      dup1\n      0x60f796a1\n      eq\n      tag_3\n      jumpi\n      dup1\n      0x9e36b71d\n      eq\n      tag_4\n      jumpi\n    tag_2:\n      0x00\n      dup1\n      revert\n        /* \"crowdFunding.sol\":137:337  function createCrowdFunding(uint minimumAmount) public {... */\n    tag_3:\n      tag_5\n      0x04\n      dup1\n      calldatasize\n      sub\n      dup2\n      add\n      swap1\n      tag_6\n      swap2\n      swap1\n      tag_7\n      jump\t// in\n    tag_6:\n      tag_8\n      jump\t// in\n    tag_5:\n      stop\n        /* \"crowdFunding.sol\":343:457  function getListOfCrowdFunding() public view returns (address [] memory){... */\n    tag_4:\n      tag_9\n      tag_10\n      jump\t// in\n    tag_9:\n      mload(0x40)\n      tag_11\n      swap2\n      swap1\n      tag_12\n      jump\t// in\n    tag_11:\n      mload(0x40)\n      dup1\n      swap2\n      sub\n      swap1\n      return\n        /* \"crowdFunding.sol\":137:337  function createCrowdFunding(uint minimumAmount) public {... */\n    tag_8:\n        /* \"crowdFunding.sol\":202:225  address newCrowdFunding */\n      0x00\n        /* \"crowdFunding.sol\":253:266  minimumAmount */\n      dup2\n        /* \"crowdFunding.sol\":268:278  msg.sender */\n      caller\n        /* \"crowdFunding.sol\":236:279  new crowdFunding(minimumAmount, msg.sender) */\n      mload(0x40)\n      tag_14\n      swap1\n      tag_15\n      jump\t// in\n    tag_14:\n      tag_16\n      swap3\n      swap2\n      swap1\n      tag_17\n      jump\t// in\n    tag_16:\n      mload(0x40)\n      dup1\n      swap2\n      sub\n      swap1\n      0x00\n      create\n      dup1\n      iszero\n      dup1\n      iszero\n      tag_18\n      jumpi\n      returndatasize\n      0x00\n      dup1\n      returndatacopy\n      revert(0x00, returndatasize)\n    tag_18:\n      pop\n        /* \"crowdFunding.sol\":202:280  address newCrowdFunding = address(new crowdFunding(minimumAmount, msg.sender)) */\n      swap1\n      pop\n        /* \"crowdFunding.sol\":290:308  listOfCrowdFunding */\n      0x00\n        /* \"crowdFunding.sol\":314:329  newCrowdFunding */\n      dup2\n        /* \"crowdFunding.sol\":290:330  listOfCrowdFunding.push(newCrowdFunding) */\n      swap1\n      dup1\n      0x01\n      dup2\n      sload\n      add\n      dup1\n      dup3\n      sstore\n      dup1\n      swap2\n      pop\n      pop\n      0x01\n      swap1\n      sub\n      swap1\n      0x00\n      mstore\n      keccak256(0x00, 0x20)\n      add\n      0x00\n      swap1\n      swap2\n      swap1\n      swap2\n      swap1\n      swap2\n      0x0100\n      exp\n      dup2\n      sload\n      dup2\n      0xffffffffffffffffffffffffffffffffffffffff\n      mul\n      not\n      and\n      swap1\n      dup4\n      0xffffffffffffffffffffffffffffffffffffffff\n      and\n      mul\n      or\n      swap1\n      sstore\n      pop\n        /* \"crowdFunding.sol\":192:337  {... */\n      pop\n        /* \"crowdFunding.sol\":137:337  function createCrowdFunding(uint minimumAmount) public {... */\n      pop\n      jump\t// out\n        /* \"crowdFunding.sol\":343:457  function getListOfCrowdFunding() public view returns (address [] memory){... */\n    tag_10:\n        /* \"crowdFunding.sol\":397:414  address [] memory */\n      0x60\n        /* \"crowdFunding.sol\":432:450  listOfCrowdFunding */\n      0x00\n        /* \"crowdFunding.sol\":425:450  return listOfCrowdFunding */\n      dup1\n      sload\n      dup1\n      0x20\n      mul\n      0x20\n      add\n      mload(0x40)\n      swap1\n      dup2\n      add\n      0x40\n      mstore\n      dup1\n      swap3\n      swap2\n      swap1\n      dup2\n      dup2\n      mstore\n      0x20\n      add\n      dup3\n      dup1\n      sload\n      dup1\n      iszero\n      tag_21\n      jumpi\n      0x20\n      mul\n      dup3\n      add\n      swap2\n      swap1\n      0x00\n      mstore\n      keccak256(0x00, 0x20)\n      swap1\n    tag_22:\n      dup2\n      0x00\n      swap1\n      sload\n      swap1\n      0x0100\n      exp\n      swap1\n      div\n      0xffffffffffffffffffffffffffffffffffffffff\n      and\n      0xffffffffffffffffffffffffffffffffffffffff\n      and\n      dup2\n      mstore\n      0x20\n      add\n      swap1\n      0x01\n      add\n      swap1\n      dup1\n      dup4\n      gt\n      tag_22\n      jumpi\n    tag_21:\n      pop\n      pop\n      pop\n      pop\n      pop\n      swap1\n      pop\n        /* \"crowdFunding.sol\":343:457  function getListOfCrowdFunding() public view returns (address [] memory){... */\n      swap1\n      jump\t// out\n    tag_15:\n      dataSize(sub_0)\n      dup1\n      dataOffset(sub_0)\n      dup4\n      codecopy\n      add\n      swap1\n      jump\t// out\n        /* \"#utility.yul\":88:205   */\n    tag_24:\n        /* \"#utility.yul\":197:198   */\n      0x00\n        /* \"#utility.yul\":194:195   */\n      dup1\n        /* \"#utility.yul\":187:199   */\n      revert\n        /* \"#utility.yul\":334:411   */\n    tag_26:\n        /* \"#utility.yul\":371:378   */\n      0x00\n        /* \"#utility.yul\":400:405   */\n      dup2\n        /* \"#utility.yul\":389:405   */\n      swap1\n      pop\n        /* \"#utility.yul\":334:411   */\n      swap2\n      swap1\n      pop\n      jump\t// out\n        /* \"#utility.yul\":417:539   */\n    tag_27:\n        /* \"#utility.yul\":490:514   */\n      tag_46\n        /* \"#utility.yul\":508:513   */\n      dup2\n        /* \"#utility.yul\":490:514   */\n      tag_26\n      jump\t// in\n    tag_46:\n        /* \"#utility.yul\":483:488   */\n      dup2\n        /* \"#utility.yul\":480:515   */\n      eq\n        /* \"#utility.yul\":470:533   */\n      tag_47\n      jumpi\n        /* \"#utility.yul\":529:530   */\n      0x00\n        /* \"#utility.yul\":526:527   */\n      dup1\n        /* \"#utility.yul\":519:531   */\n      revert\n        /* \"#utility.yul\":470:533   */\n    tag_47:\n        /* \"#utility.yul\":417:539   */\n      pop\n      jump\t// out\n        /* \"#utility.yul\":545:684   */\n    tag_28:\n        /* \"#utility.yul\":591:596   */\n      0x00\n        /* \"#utility.yul\":629:635   */\n      dup2\n        /* \"#utility.yul\":616:636   */\n      calldataload\n        /* \"#utility.yul\":607:636   */\n      swap1\n      pop\n        /* \"#utility.yul\":645:678   */\n      tag_49\n        /* \"#utility.yul\":672:677   */\n      dup2\n        /* \"#utility.yul\":645:678   */\n      tag_27\n      jump\t// in\n    tag_49:\n        /* \"#utility.yul\":545:684   */\n      swap3\n      swap2\n      pop\n      pop\n      jump\t// out\n        /* \"#utility.yul\":690:1019   */\n    tag_7:\n        /* \"#utility.yul\":749:755   */\n      0x00\n        /* \"#utility.yul\":798:800   */\n      0x20\n        /* \"#utility.yul\":786:795   */\n      dup3\n        /* \"#utility.yul\":777:784   */\n      dup5\n        /* \"#utility.yul\":773:796   */\n      sub\n        /* \"#utility.yul\":769:801   */\n      slt\n        /* \"#utility.yul\":766:885   */\n      iszero\n      tag_51\n      jumpi\n        /* \"#utility.yul\":804:883   */\n      tag_52\n      tag_24\n      jump\t// in\n    tag_52:\n        /* \"#utility.yul\":766:885   */\n    tag_51:\n        /* \"#utility.yul\":924:925   */\n      0x00\n        /* \"#utility.yul\":949:1002   */\n      tag_53\n        /* \"#utility.yul\":994:1001   */\n      dup5\n        /* \"#utility.yul\":985:991   */\n      dup3\n        /* \"#utility.yul\":974:983   */\n      dup6\n        /* \"#utility.yul\":970:992   */\n      add\n        /* \"#utility.yul\":949:1002   */\n      tag_28\n      jump\t// in\n    tag_53:\n        /* \"#utility.yul\":939:1002   */\n      swap2\n      pop\n        /* \"#utility.yul\":895:1012   */\n      pop\n        /* \"#utility.yul\":690:1019   */\n      swap3\n      swap2\n      pop\n      pop\n      jump\t// out\n        /* \"#utility.yul\":1025:1139   */\n    tag_29:\n        /* \"#utility.yul\":1092:1098   */\n      0x00\n        /* \"#utility.yul\":1126:1131   */\n      dup2\n        /* \"#utility.yul\":1120:1132   */\n      mload\n        /* \"#utility.yul\":1110:1132   */\n      swap1\n      pop\n        /* \"#utility.yul\":1025:1139   */\n      swap2\n      swap1\n      pop\n      jump\t// out\n        /* \"#utility.yul\":1145:1329   */\n    tag_30:\n        /* \"#utility.yul\":1244:1255   */\n      0x00\n        /* \"#utility.yul\":1278:1284   */\n      dup3\n        /* \"#utility.yul\":1273:1276   */\n      dup3\n        /* \"#utility.yul\":1266:1285   */\n      mstore\n        /* \"#utility.yul\":1318:1322   */\n      0x20\n        /* \"#utility.yul\":1313:1316   */\n      dup3\n        /* \"#utility.yul\":1309:1323   */\n      add\n        /* \"#utility.yul\":1294:1323   */\n      swap1\n      pop\n        /* \"#utility.yul\":1145:1329   */\n      swap3\n      swap2\n      pop\n      pop\n      jump\t// out\n        /* \"#utility.yul\":1335:1467   */\n    tag_31:\n        /* \"#utility.yul\":1402:1406   */\n      0x00\n        /* \"#utility.yul\":1425:1428   */\n      dup2\n        /* \"#utility.yul\":1417:1428   */\n      swap1\n      pop\n        /* \"#utility.yul\":1455:1459   */\n      0x20\n        /* \"#utility.yul\":1450:1453   */\n      dup3\n        /* \"#utility.yul\":1446:1460   */\n      add\n        /* \"#utility.yul\":1438:1460   */\n      swap1\n      pop\n        /* \"#utility.yul\":1335:1467   */\n      swap2\n      swap1\n      pop\n      jump\t// out\n        /* \"#utility.yul\":1473:1599   */\n    tag_32:\n        /* \"#utility.yul\":1510:1517   */\n      0x00\n        /* \"#utility.yul\":1550:1592   */\n      0xffffffffffffffffffffffffffffffffffffffff\n        /* \"#utility.yul\":1543:1548   */\n      dup3\n        /* \"#utility.yul\":1539:1593   */\n      and\n        /* \"#utility.yul\":1528:1593   */\n      swap1\n      pop\n        /* \"#utility.yul\":1473:1599   */\n      swap2\n      swap1\n      pop\n      jump\t// out\n        /* \"#utility.yul\":1605:1701   */\n    tag_33:\n        /* \"#utility.yul\":1642:1649   */\n      0x00\n        /* \"#utility.yul\":1671:1695   */\n      tag_59\n        /* \"#utility.yul\":1689:1694   */\n      dup3\n        /* \"#utility.yul\":1671:1695   */\n      tag_32\n      jump\t// in\n    tag_59:\n        /* \"#utility.yul\":1660:1695   */\n      swap1\n      pop\n        /* \"#utility.yul\":1605:1701   */\n      swap2\n      swap1\n      pop\n      jump\t// out\n        /* \"#utility.yul\":1707:1815   */\n    tag_34:\n        /* \"#utility.yul\":1784:1808   */\n      tag_61\n        /* \"#utility.yul\":1802:1807   */\n      dup2\n        /* \"#utility.yul\":1784:1808   */\n      tag_33\n      jump\t// in\n    tag_61:\n        /* \"#utility.yul\":1779:1782   */\n      dup3\n        /* \"#utility.yul\":1772:1809   */\n      mstore\n        /* \"#utility.yul\":1707:1815   */\n      pop\n      pop\n      jump\t// out\n        /* \"#utility.yul\":1821:2000   */\n    tag_35:\n        /* \"#utility.yul\":1890:1900   */\n      0x00\n        /* \"#utility.yul\":1911:1957   */\n      tag_63\n        /* \"#utility.yul\":1953:1956   */\n      dup4\n        /* \"#utility.yul\":1945:1951   */\n      dup4\n        /* \"#utility.yul\":1911:1957   */\n      tag_34\n      jump\t// in\n    tag_63:\n        /* \"#utility.yul\":1989:1993   */\n      0x20\n        /* \"#utility.yul\":1984:1987   */\n      dup4\n        /* \"#utility.yul\":1980:1994   */\n      add\n        /* \"#utility.yul\":1966:1994   */\n      swap1\n      pop\n        /* \"#utility.yul\":1821:2000   */\n      swap3\n      swap2\n      pop\n      pop\n      jump\t// out\n        /* \"#utility.yul\":2006:2119   */\n    tag_36:\n        /* \"#utility.yul\":2076:2080   */\n      0x00\n        /* \"#utility.yul\":2108:2112   */\n      0x20\n        /* \"#utility.yul\":2103:2106   */\n      dup3\n        /* \"#utility.yul\":2099:2113   */\n      add\n        /* \"#utility.yul\":2091:2113   */\n      swap1\n      pop\n        /* \"#utility.yul\":2006:2119   */\n      swap2\n      swap1\n      pop\n      jump\t// out\n        /* \"#utility.yul\":2155:2887   */\n    tag_37:\n        /* \"#utility.yul\":2274:2277   */\n      0x00\n        /* \"#utility.yul\":2303:2357   */\n      tag_66\n        /* \"#utility.yul\":2351:2356   */\n      dup3\n        /* \"#utility.yul\":2303:2357   */\n      tag_29\n      jump\t// in\n    tag_66:\n        /* \"#utility.yul\":2373:2459   */\n      tag_67\n        /* \"#utility.yul\":2452:2458   */\n      dup2\n        /* \"#utility.yul\":2447:2450   */\n      dup6\n        /* \"#utility.yul\":2373:2459   */\n      tag_30\n      jump\t// in\n    tag_67:\n        /* \"#utility.yul\":2366:2459   */\n      swap4\n      pop\n        /* \"#utility.yul\":2483:2539   */\n      tag_68\n        /* \"#utility.yul\":2533:2538   */\n      dup4\n        /* \"#utility.yul\":2483:2539   */\n      tag_31\n      jump\t// in\n    tag_68:\n        /* \"#utility.yul\":2562:2569   */\n      dup1\n        /* \"#utility.yul\":2593:2594   */\n      0x00\n        /* \"#utility.yul\":2578:2862   */\n    tag_69:\n        /* \"#utility.yul\":2603:2609   */\n      dup4\n        /* \"#utility.yul\":2600:2601   */\n      dup2\n        /* \"#utility.yul\":2597:2610   */\n      lt\n        /* \"#utility.yul\":2578:2862   */\n      iszero\n      tag_71\n      jumpi\n        /* \"#utility.yul\":2679:2685   */\n      dup2\n        /* \"#utility.yul\":2673:2686   */\n      mload\n        /* \"#utility.yul\":2706:2769   */\n      tag_72\n        /* \"#utility.yul\":2765:2768   */\n      dup9\n        /* \"#utility.yul\":2750:2763   */\n      dup3\n        /* \"#utility.yul\":2706:2769   */\n      tag_35\n      jump\t// in\n    tag_72:\n        /* \"#utility.yul\":2699:2769   */\n      swap8\n      pop\n        /* \"#utility.yul\":2792:2852   */\n      tag_73\n        /* \"#utility.yul\":2845:2851   */\n      dup4\n        /* \"#utility.yul\":2792:2852   */\n      tag_36\n      jump\t// in\n    tag_73:\n        /* \"#utility.yul\":2782:2852   */\n      swap3\n      pop\n        /* \"#utility.yul\":2638:2862   */\n      pop\n        /* \"#utility.yul\":2625:2626   */\n      0x01\n        /* \"#utility.yul\":2622:2623   */\n      dup2\n        /* \"#utility.yul\":2618:2627   */\n      add\n        /* \"#utility.yul\":2613:2627   */\n      swap1\n      pop\n        /* \"#utility.yul\":2578:2862   */\n      jump(tag_69)\n    tag_71:\n        /* \"#utility.yul\":2582:2596   */\n      pop\n        /* \"#utility.yul\":2878:2881   */\n      dup6\n        /* \"#utility.yul\":2871:2881   */\n      swap4\n      pop\n        /* \"#utility.yul\":2279:2887   */\n      pop\n      pop\n      pop\n        /* \"#utility.yul\":2155:2887   */\n      swap3\n      swap2\n      pop\n      pop\n      jump\t// out\n        /* \"#utility.yul\":2893:3266   */\n    tag_12:\n        /* \"#utility.yul\":3036:3040   */\n      0x00\n        /* \"#utility.yul\":3074:3076   */\n      0x20\n        /* \"#utility.yul\":3063:3072   */\n      dup3\n        /* \"#utility.yul\":3059:3077   */\n      add\n        /* \"#utility.yul\":3051:3077   */\n      swap1\n      pop\n        /* \"#utility.yul\":3123:3132   */\n      dup2\n        /* \"#utility.yul\":3117:3121   */\n      dup2\n        /* \"#utility.yul\":3113:3133   */\n      sub\n        /* \"#utility.yul\":3109:3110   */\n      0x00\n        /* \"#utility.yul\":3098:3107   */\n      dup4\n        /* \"#utility.yul\":3094:3111   */\n      add\n        /* \"#utility.yul\":3087:3134   */\n      mstore\n        /* \"#utility.yul\":3151:3259   */\n      tag_75\n        /* \"#utility.yul\":3254:3258   */\n      dup2\n        /* \"#utility.yul\":3245:3251   */\n      dup5\n        /* \"#utility.yul\":3151:3259   */\n      tag_37\n      jump\t// in\n    tag_75:\n        /* \"#utility.yul\":3143:3259   */\n      swap1\n      pop\n        /* \"#utility.yul\":2893:3266   */\n      swap3\n      swap2\n      pop\n      pop\n      jump\t// out\n        /* \"#utility.yul\":3272:3390   */\n    tag_38:\n        /* \"#utility.yul\":3359:3383   */\n      tag_77\n        /* \"#utility.yul\":3377:3382   */\n      dup2\n        /* \"#utility.yul\":3359:3383   */\n      tag_26\n      jump\t// in\n    tag_77:\n        /* \"#utility.yul\":3354:3357   */\n      dup3\n        /* \"#utility.yul\":3347:3384   */\n      mstore\n        /* \"#utility.yul\":3272:3390   */\n      pop\n      pop\n      jump\t// out\n        /* \"#utility.yul\":3396:3514   */\n    tag_39:\n        /* \"#utility.yul\":3483:3507   */\n      tag_79\n        /* \"#utility.yul\":3501:3506   */\n      dup2\n        /* \"#utility.yul\":3483:3507   */\n      tag_33\n      jump\t// in\n    tag_79:\n        /* \"#utility.yul\":3478:3481   */\n      dup3\n        /* \"#utility.yul\":3471:3508   */\n      mstore\n        /* \"#utility.yul\":3396:3514   */\n      pop\n      pop\n      jump\t// out\n        /* \"#utility.yul\":3520:3852   */\n    tag_17:\n        /* \"#utility.yul\":3641:3645   */\n      0x00\n        /* \"#utility.yul\":3679:3681   */\n      0x40\n        /* \"#utility.yul\":3668:3677   */\n      dup3\n        /* \"#utility.yul\":3664:3682   */\n      add\n        /* \"#utility.yul\":3656:3682   */\n      swap1\n      pop\n        /* \"#utility.yul\":3692:3763   */\n      tag_81\n        /* \"#utility.yul\":3760:3761   */\n      0x00\n        /* \"#utility.yul\":3749:3758   */\n      dup4\n        /* \"#utility.yul\":3745:3762   */\n      add\n        /* \"#utility.yul\":3736:3742   */\n      dup6\n        /* \"#utility.yul\":3692:3763   */\n      tag_38\n      jump\t// in\n    tag_81:\n        /* \"#utility.yul\":3773:3845   */\n      tag_82\n        /* \"#utility.yul\":3841:3843   */\n      0x20\n        /* \"#utility.yul\":3830:3839   */\n      dup4\n        /* \"#utility.yul\":3826:3844   */\n      add\n        /* \"#utility.yul\":3817:3823   */\n      dup5\n        /* \"#utility.yul\":3773:3845   */\n      tag_39\n      jump\t// in\n    tag_82:\n        /* \"#utility.yul\":3520:3852   */\n      swap4\n      swap3\n      pop\n      pop\n      pop\n      jump\t// out\n    stop\n\n    sub_0: assembly {\n            /* \"crowdFunding.sol\":461:2634  contract crowdFunding{... */\n          mstore(0x40, 0x80)\n            /* \"crowdFunding.sol\":927:1034  constructor(uint amount, address creator) {... */\n          callvalue\n          dup1\n          iszero\n          tag_1\n          jumpi\n          0x00\n          dup1\n          revert\n        tag_1:\n          pop\n          mload(0x40)\n          sub(codesize, bytecodeSize)\n          dup1\n          bytecodeSize\n          dup4\n          codecopy\n          dup2\n          dup2\n          add\n          0x40\n          mstore\n          dup2\n          add\n          swap1\n          tag_2\n          swap2\n          swap1\n          tag_3\n          jump\t// in\n        tag_2:\n            /* \"crowdFunding.sol\":987:994  creator */\n          dup1\n            /* \"crowdFunding.sol\":979:984  owner */\n          0x00\n          dup1\n            /* \"crowdFunding.sol\":979:994  owner = creator */\n          0x0100\n          exp\n          dup2\n          sload\n          dup2\n          0xffffffffffffffffffffffffffffffffffffffff\n          mul\n          not\n          and\n          swap1\n          dup4\n          0xffffffffffffffffffffffffffffffffffffffff\n          and\n          mul\n          or\n          swap1\n          sstore\n          pop\n            /* \"crowdFunding.sol\":1020:1026  amount */\n          dup2\n            /* \"crowdFunding.sol\":1004:1017  minimumAmount */\n          0x02\n            /* \"crowdFunding.sol\":1004:1026  minimumAmount = amount */\n          dup2\n          swap1\n          sstore\n          pop\n            /* \"crowdFunding.sol\":927:1034  constructor(uint amount, address creator) {... */\n          pop\n          pop\n            /* \"crowdFunding.sol\":461:2634  contract crowdFunding{... */\n          jump(tag_6)\n            /* \"#utility.yul\":88:205   */\n        tag_8:\n            /* \"#utility.yul\":197:198   */\n          0x00\n            /* \"#utility.yul\":194:195   */\n          dup1\n            /* \"#utility.yul\":187:199   */\n          revert\n            /* \"#utility.yul\":334:411   */\n        tag_10:\n            /* \"#utility.yul\":371:378   */\n          0x00\n            /* \"#utility.yul\":400:405   */\n          dup2\n            /* \"#utility.yul\":389:405   */\n          swap1\n          pop\n            /* \"#utility.yul\":334:411   */\n          swap2\n          swap1\n          pop\n          jump\t// out\n            /* \"#utility.yul\":417:539   */\n        tag_11:\n            /* \"#utility.yul\":490:514   */\n          tag_23\n            /* \"#utility.yul\":508:513   */\n          dup2\n            /* \"#utility.yul\":490:514   */\n          tag_10\n          jump\t// in\n        tag_23:\n            /* \"#utility.yul\":483:488   */\n          dup2\n            /* \"#utility.yul\":480:515   */\n          eq\n            /* \"#utility.yul\":470:533   */\n          tag_24\n          jumpi\n            /* \"#utility.yul\":529:530   */\n          0x00\n            /* \"#utility.yul\":526:527   */\n          dup1\n            /* \"#utility.yul\":519:531   */\n          revert\n            /* \"#utility.yul\":470:533   */\n        tag_24:\n            /* \"#utility.yul\":417:539   */\n          pop\n          jump\t// out\n            /* \"#utility.yul\":545:688   */\n        tag_12:\n            /* \"#utility.yul\":602:607   */\n          0x00\n            /* \"#utility.yul\":633:639   */\n          dup2\n            /* \"#utility.yul\":627:640   */\n          mload\n            /* \"#utility.yul\":618:640   */\n          swap1\n          pop\n            /* \"#utility.yul\":649:682   */\n          tag_26\n            /* \"#utility.yul\":676:681   */\n          dup2\n            /* \"#utility.yul\":649:682   */\n          tag_11\n          jump\t// in\n        tag_26:\n            /* \"#utility.yul\":545:688   */\n          swap3\n          swap2\n          pop\n          pop\n          jump\t// out\n            /* \"#utility.yul\":694:820   */\n        tag_13:\n            /* \"#utility.yul\":731:738   */\n          0x00\n            /* \"#utility.yul\":771:813   */\n          0xffffffffffffffffffffffffffffffffffffffff\n            /* \"#utility.yul\":764:769   */\n          dup3\n            /* \"#utility.yul\":760:814   */\n          and\n            /* \"#utility.yul\":749:814   */\n          swap1\n          pop\n            /* \"#utility.yul\":694:820   */\n          swap2\n          swap1\n          pop\n          jump\t// out\n            /* \"#utility.yul\":826:922   */\n        tag_14:\n            /* \"#utility.yul\":863:870   */\n          0x00\n            /* \"#utility.yul\":892:916   */\n          tag_29\n            /* \"#utility.yul\":910:915   */\n          dup3\n            /* \"#utility.yul\":892:916   */\n          tag_13\n          jump\t// in\n        tag_29:\n            /* \"#utility.yul\":881:916   */\n          swap1\n          pop\n            /* \"#utility.yul\":826:922   */\n          swap2\n          swap1\n          pop\n          jump\t// out\n            /* \"#utility.yul\":928:1050   */\n        tag_15:\n            /* \"#utility.yul\":1001:1025   */\n          tag_31\n            /* \"#utility.yul\":1019:1024   */\n          dup2\n            /* \"#utility.yul\":1001:1025   */\n          tag_14\n          jump\t// in\n        tag_31:\n            /* \"#utility.yul\":994:999   */\n          dup2\n            /* \"#utility.yul\":991:1026   */\n          eq\n            /* \"#utility.yul\":981:1044   */\n          tag_32\n          jumpi\n            /* \"#utility.yul\":1040:1041   */\n          0x00\n            /* \"#utility.yul\":1037:1038   */\n          dup1\n            /* \"#utility.yul\":1030:1042   */\n          revert\n            /* \"#utility.yul\":981:1044   */\n        tag_32:\n            /* \"#utility.yul\":928:1050   */\n          pop\n          jump\t// out\n            /* \"#utility.yul\":1056:1199   */\n        tag_16:\n            /* \"#utility.yul\":1113:1118   */\n          0x00\n            /* \"#utility.yul\":1144:1150   */\n          dup2\n            /* \"#utility.yul\":1138:1151   */\n          mload\n            /* \"#utility.yul\":1129:1151   */\n          swap1\n          pop\n            /* \"#utility.yul\":1160:1193   */\n          tag_34\n            /* \"#utility.yul\":1187:1192   */\n          dup2\n            /* \"#utility.yul\":1160:1193   */\n          tag_15\n          jump\t// in\n        tag_34:\n            /* \"#utility.yul\":1056:1199   */\n          swap3\n          swap2\n          pop\n          pop\n          jump\t// out\n            /* \"#utility.yul\":1205:1712   */\n        tag_3:\n            /* \"#utility.yul\":1284:1290   */\n          0x00\n            /* \"#utility.yul\":1292:1298   */\n          dup1\n            /* \"#utility.yul\":1341:1343   */\n          0x40\n            /* \"#utility.yul\":1329:1338   */\n          dup4\n            /* \"#utility.yul\":1320:1327   */\n          dup6\n            /* \"#utility.yul\":1316:1339   */\n          sub\n            /* \"#utility.yul\":1312:1344   */\n          slt\n            /* \"#utility.yul\":1309:1428   */\n          iszero\n          tag_36\n          jumpi\n            /* \"#utility.yul\":1347:1426   */\n          tag_37\n          tag_8\n          jump\t// in\n        tag_37:\n            /* \"#utility.yul\":1309:1428   */\n        tag_36:\n            /* \"#utility.yul\":1467:1468   */\n          0x00\n            /* \"#utility.yul\":1492:1556   */\n          tag_38\n            /* \"#utility.yul\":1548:1555   */\n          dup6\n            /* \"#utility.yul\":1539:1545   */\n          dup3\n            /* \"#utility.yul\":1528:1537   */\n          dup7\n            /* \"#utility.yul\":1524:1546   */\n          add\n            /* \"#utility.yul\":1492:1556   */\n          tag_12\n          jump\t// in\n        tag_38:\n            /* \"#utility.yul\":1482:1556   */\n          swap3\n          pop\n            /* \"#utility.yul\":1438:1566   */\n          pop\n            /* \"#utility.yul\":1605:1607   */\n          0x20\n            /* \"#utility.yul\":1631:1695   */\n          tag_39\n            /* \"#utility.yul\":1687:1694   */\n          dup6\n            /* \"#utility.yul\":1678:1684   */\n          dup3\n            /* \"#utility.yul\":1667:1676   */\n          dup7\n            /* \"#utility.yul\":1663:1685   */\n          add\n            /* \"#utility.yul\":1631:1695   */\n          tag_16\n          jump\t// in\n        tag_39:\n            /* \"#utility.yul\":1621:1695   */\n          swap2\n          pop\n            /* \"#utility.yul\":1576:1705   */\n          pop\n            /* \"#utility.yul\":1205:1712   */\n          swap3\n          pop\n          swap3\n          swap1\n          pop\n          jump\t// out\n            /* \"crowdFunding.sol\":461:2634  contract crowdFunding{... */\n        tag_6:\n          dataSize(sub_0)\n          dup1\n          dataOffset(sub_0)\n          0x00\n          codecopy\n          0x00\n          return\n        stop\n\n        sub_0: assembly {\n                /* \"crowdFunding.sol\":461:2634  contract crowdFunding{... */\n              mstore(0x40, 0x80)\n              jumpi(tag_1, lt(calldatasize, 0x04))\n              shr(0xe0, calldataload(0x00))\n              dup1\n              0x81d12c58\n              gt\n              tag_13\n              jumpi\n              dup1\n              0x81d12c58\n              eq\n              tag_7\n              jumpi\n              dup1\n              0x8da5cb5b\n              eq\n              tag_8\n              jumpi\n              dup1\n              0xbb0c8298\n              eq\n              tag_9\n              jumpi\n              dup1\n              0xc2bb515f\n              eq\n              tag_10\n              jumpi\n              dup1\n              0xd7bb99ba\n              eq\n              tag_11\n              jumpi\n              dup1\n              0xd7d1bbdb\n              eq\n              tag_12\n              jumpi\n              jump(tag_1)\n            tag_13:\n              dup1\n              0x03441006\n              eq\n              tag_2\n              jumpi\n              dup1\n              0x0bfd66c9\n              eq\n              tag_3\n              jumpi\n              dup1\n              0x3a1c30ac\n              eq\n              tag_4\n              jumpi\n              dup1\n              0x3ff1e05b\n              eq\n              tag_5\n              jumpi\n              dup1\n              0x4fc3dba6\n              eq\n              tag_6\n              jumpi\n            tag_1:\n              0x00\n              dup1\n              revert\n                /* \"crowdFunding.sol\":1848:2162  function finalizeRequest(uint index) public payable admin{... */\n            tag_2:\n              tag_14\n              0x04\n              dup1\n              calldatasize\n              sub\n              dup2\n              add\n              swap1\n              tag_15\n              swap2\n              swap1\n              tag_16\n              jump\t// in\n            tag_15:\n              tag_17\n              jump\t// in\n            tag_14:\n              stop\n                /* \"crowdFunding.sol\":1201:1556  function makeRequest( string memory description, uint value, address payable recipient) public admin {... */\n            tag_3:\n              callvalue\n              dup1\n              iszero\n              tag_18\n              jumpi\n              0x00\n              dup1\n              revert\n            tag_18:\n              pop\n              tag_19\n              0x04\n              dup1\n              calldatasize\n              sub\n              dup2\n              add\n              swap1\n              tag_20\n              swap2\n              swap1\n              tag_21\n              jump\t// in\n            tag_20:\n              tag_22\n              jump\t// in\n            tag_19:\n              stop\n                /* \"crowdFunding.sol\":2268:2538  function getCrowdFundingDetails()public view returns (uint, uint, uint, address, uint) {... */\n            tag_4:\n              callvalue\n              dup1\n              iszero\n              tag_23\n              jumpi\n              0x00\n              dup1\n              revert\n            tag_23:\n              pop\n              tag_24\n              tag_25\n              jump\t// in\n            tag_24:\n              mload(0x40)\n              tag_26\n              swap6\n              swap5\n              swap4\n              swap3\n              swap2\n              swap1\n              tag_27\n              jump\t// in\n            tag_26:\n              mload(0x40)\n              dup1\n              swap2\n              sub\n              swap1\n              return\n                /* \"crowdFunding.sol\":2168:2262  function viewBalance() public view returns (uint){... */\n            tag_5:\n              callvalue\n              dup1\n              iszero\n              tag_28\n              jumpi\n              0x00\n              dup1\n              revert\n            tag_28:\n              pop\n              tag_29\n              tag_30\n              jump\t// in\n            tag_29:\n              mload(0x40)\n              tag_31\n              swap2\n              swap1\n              tag_32\n              jump\t// in\n            tag_31:\n              mload(0x40)\n              dup1\n              swap2\n              sub\n              swap1\n              return\n                /* \"crowdFunding.sol\":816:844  uint public totalContributor */\n            tag_6:\n              callvalue\n              dup1\n              iszero\n              tag_33\n              jumpi\n              0x00\n              dup1\n              revert\n            tag_33:\n              pop\n              tag_34\n              tag_35\n              jump\t// in\n            tag_34:\n              mload(0x40)\n              tag_36\n              swap2\n              swap1\n              tag_32\n              jump\t// in\n            tag_36:\n              mload(0x40)\n              dup1\n              swap2\n              sub\n              swap1\n              return\n                /* \"crowdFunding.sol\":785:810  Request[] public requests */\n            tag_7:\n              callvalue\n              dup1\n              iszero\n              tag_37\n              jumpi\n              0x00\n              dup1\n              revert\n            tag_37:\n              pop\n              tag_38\n              0x04\n              dup1\n              calldatasize\n              sub\n              dup2\n              add\n              swap1\n              tag_39\n              swap2\n              swap1\n              tag_16\n              jump\t// in\n            tag_39:\n              tag_40\n              jump\t// in\n            tag_38:\n              mload(0x40)\n              tag_41\n              swap6\n              swap5\n              swap4\n              swap3\n              swap2\n              swap1\n              tag_42\n              jump\t// in\n            tag_41:\n              mload(0x40)\n              dup1\n              swap2\n              sub\n              swap1\n              return\n                /* \"crowdFunding.sol\":686:706  address public owner */\n            tag_8:\n              callvalue\n              dup1\n              iszero\n              tag_43\n              jumpi\n              0x00\n              dup1\n              revert\n            tag_43:\n              pop\n              tag_44\n              tag_45\n              jump\t// in\n            tag_44:\n              mload(0x40)\n              tag_46\n              swap2\n              swap1\n              tag_47\n              jump\t// in\n            tag_46:\n              mload(0x40)\n              dup1\n              swap2\n              sub\n              swap1\n              return\n                /* \"crowdFunding.sol\":754:779  uint public minimumAmount */\n            tag_9:\n              callvalue\n              dup1\n              iszero\n              tag_48\n              jumpi\n              0x00\n              dup1\n              revert\n            tag_48:\n              pop\n              tag_49\n              tag_50\n              jump\t// in\n            tag_49:\n              mload(0x40)\n              tag_51\n              swap2\n              swap1\n              tag_32\n              jump\t// in\n            tag_51:\n              mload(0x40)\n              dup1\n              swap2\n              sub\n              swap1\n              return\n                /* \"crowdFunding.sol\":2544:2632  function getRequest() public view returns (uint) {... */\n            tag_10:\n              callvalue\n              dup1\n              iszero\n              tag_52\n              jumpi\n              0x00\n              dup1\n              revert\n            tag_52:\n              pop\n              tag_53\n              tag_54\n              jump\t// in\n            tag_53:\n              mload(0x40)\n              tag_55\n              swap2\n              swap1\n              tag_32\n              jump\t// in\n            tag_55:\n              mload(0x40)\n              dup1\n              swap2\n              sub\n              swap1\n              return\n                /* \"crowdFunding.sol\":1039:1195  function contribute() public payable{... */\n            tag_11:\n              tag_56\n              tag_57\n              jump\t// in\n            tag_56:\n              stop\n                /* \"crowdFunding.sol\":1562:1842  function approveRequest(uint index) public {... */\n            tag_12:\n              callvalue\n              dup1\n              iszero\n              tag_58\n              jumpi\n              0x00\n              dup1\n              revert\n            tag_58:\n              pop\n              tag_59\n              0x04\n              dup1\n              calldatasize\n              sub\n              dup2\n              add\n              swap1\n              tag_60\n              swap2\n              swap1\n              tag_16\n              jump\t// in\n            tag_60:\n              tag_61\n              jump\t// in\n            tag_59:\n              stop\n                /* \"crowdFunding.sol\":1848:2162  function finalizeRequest(uint index) public payable admin{... */\n            tag_17:\n                /* \"crowdFunding.sol\":897:902  owner */\n              0x00\n              dup1\n              sload\n              swap1\n              0x0100\n              exp\n              swap1\n              div\n              0xffffffffffffffffffffffffffffffffffffffff\n              and\n                /* \"crowdFunding.sol\":883:902  msg.sender == owner */\n              0xffffffffffffffffffffffffffffffffffffffff\n              and\n                /* \"crowdFunding.sol\":883:893  msg.sender */\n              caller\n                /* \"crowdFunding.sol\":883:902  msg.sender == owner */\n              0xffffffffffffffffffffffffffffffffffffffff\n              and\n              eq\n                /* \"crowdFunding.sol\":875:903  require(msg.sender == owner) */\n              tag_63\n              jumpi\n              0x00\n              dup1\n              revert\n            tag_63:\n                /* \"crowdFunding.sol\":1924:1932  requests */\n              0x03\n                /* \"crowdFunding.sol\":1933:1938  index */\n              dup2\n                /* \"crowdFunding.sol\":1924:1939  requests[index] */\n              dup2\n              sload\n              dup2\n              lt\n              tag_65\n              jumpi\n              tag_66\n              tag_67\n              jump\t// in\n            tag_66:\n            tag_65:\n              swap1\n              0x00\n              mstore\n              keccak256(0x00, 0x20)\n              swap1\n              0x05\n              mul\n              add\n                /* \"crowdFunding.sol\":1924:1948  requests[index].complete */\n              0x02\n              add\n              0x14\n              swap1\n              sload\n              swap1\n              0x0100\n              exp\n              swap1\n              div\n              0xff\n              and\n                /* \"crowdFunding.sol\":1923:1948  !requests[index].complete */\n              iszero\n                /* \"crowdFunding.sol\":1915:1949  require(!requests[index].complete) */\n              tag_69\n              jumpi\n              0x00\n              dup1\n              revert\n            tag_69:\n                /* \"crowdFunding.sol\":1960:1983  Request storage request */\n              0x00\n                /* \"crowdFunding.sol\":1986:1994  requests */\n              0x03\n                /* \"crowdFunding.sol\":1995:2000  index */\n              dup3\n                /* \"crowdFunding.sol\":1986:2001  requests[index] */\n              dup2\n              sload\n              dup2\n              lt\n              tag_70\n              jumpi\n              tag_71\n              tag_67\n              jump\t// in\n            tag_71:\n            tag_70:\n              swap1\n              0x00\n              mstore\n              keccak256(0x00, 0x20)\n              swap1\n              0x05\n              mul\n              add\n                /* \"crowdFunding.sol\":1960:2001  Request storage request = requests[index] */\n              swap1\n              pop\n                /* \"crowdFunding.sol\":2058:2059  2 */\n              0x02\n                /* \"crowdFunding.sol\":2041:2057  totalContributor */\n              sload(0x04)\n                /* \"crowdFunding.sol\":2041:2059  totalContributor/2 */\n              tag_73\n              swap2\n              swap1\n              tag_74\n              jump\t// in\n            tag_73:\n                /* \"crowdFunding.sol\":2020:2027  request */\n              dup2\n                /* \"crowdFunding.sol\":2020:2037  request.voteCount */\n              0x03\n              add\n              sload\n                /* \"crowdFunding.sol\":2020:2060  request.voteCount > (totalContributor/2) */\n              gt\n                /* \"crowdFunding.sol\":2012:2061  require(request.voteCount > (totalContributor/2)) */\n              tag_75\n              jumpi\n              0x00\n              dup1\n              revert\n            tag_75:\n                /* \"crowdFunding.sol\":2080:2087  request */\n              dup1\n                /* \"crowdFunding.sol\":2080:2097  request.recipient */\n              0x02\n              add\n              0x00\n              swap1\n              sload\n              swap1\n              0x0100\n              exp\n              swap1\n              div\n              0xffffffffffffffffffffffffffffffffffffffff\n              and\n                /* \"crowdFunding.sol\":2080:2106  request.recipient.transfer */\n              0xffffffffffffffffffffffffffffffffffffffff\n              and\n                /* \"crowdFunding.sol\":2080:2121  request.recipient.transfer(request.value) */\n              0x08fc\n                /* \"crowdFunding.sol\":2107:2114  request */\n              dup3\n                /* \"crowdFunding.sol\":2107:2120  request.value */\n              0x01\n              add\n              sload\n                /* \"crowdFunding.sol\":2080:2121  request.recipient.transfer(request.value) */\n              swap1\n              dup2\n              iszero\n              mul\n              swap1\n              mload(0x40)\n              0x00\n              mload(0x40)\n              dup1\n              dup4\n              sub\n              dup2\n              dup6\n              dup9\n              dup9\n              call\n              swap4\n              pop\n              pop\n              pop\n              pop\n              iszero\n              dup1\n              iszero\n              tag_77\n              jumpi\n              returndatasize\n              0x00\n              dup1\n              returndatacopy\n              revert(0x00, returndatasize)\n            tag_77:\n              pop\n                /* \"crowdFunding.sol\":2150:2154  true */\n              0x01\n                /* \"crowdFunding.sol\":2131:2138  request */\n              dup2\n                /* \"crowdFunding.sol\":2131:2147  request.complete */\n              0x02\n              add\n              0x14\n                /* \"crowdFunding.sol\":2131:2154  request.complete = true */\n              0x0100\n              exp\n              dup2\n              sload\n              dup2\n              0xff\n              mul\n              not\n              and\n              swap1\n              dup4\n              iszero\n              iszero\n              mul\n              or\n              swap1\n              sstore\n              pop\n                /* \"crowdFunding.sol\":1905:2162  {... */\n              pop\n                /* \"crowdFunding.sol\":1848:2162  function finalizeRequest(uint index) public payable admin{... */\n              pop\n              jump\t// out\n                /* \"crowdFunding.sol\":1201:1556  function makeRequest( string memory description, uint value, address payable recipient) public admin {... */\n            tag_22:\n                /* \"crowdFunding.sol\":897:902  owner */\n              0x00\n              dup1\n              sload\n              swap1\n              0x0100\n              exp\n              swap1\n              div\n              0xffffffffffffffffffffffffffffffffffffffff\n              and\n                /* \"crowdFunding.sol\":883:902  msg.sender == owner */\n              0xffffffffffffffffffffffffffffffffffffffff\n              and\n                /* \"crowdFunding.sol\":883:893  msg.sender */\n              caller\n                /* \"crowdFunding.sol\":883:902  msg.sender == owner */\n              0xffffffffffffffffffffffffffffffffffffffff\n              and\n              eq\n                /* \"crowdFunding.sol\":875:903  require(msg.sender == owner) */\n              tag_79\n              jumpi\n              0x00\n              dup1\n              revert\n            tag_79:\n                /* \"crowdFunding.sol\":1312:1338  Request storage newRequest */\n              0x00\n                /* \"crowdFunding.sol\":1341:1349  requests */\n              0x03\n                /* \"crowdFunding.sol\":1341:1356  requests.push() */\n              0x01\n              dup2\n              0x01\n              dup2\n              sload\n              add\n              dup1\n              dup3\n              sstore\n              dup1\n              swap2\n              pop\n              pop\n              sub\n              swap1\n              0x00\n              mstore\n              keccak256(0x00, 0x20)\n              swap1\n              0x05\n              mul\n              add\n                /* \"crowdFunding.sol\":1312:1356  Request storage newRequest = requests.push() */\n              swap1\n              pop\n                /* \"crowdFunding.sol\":1391:1402  description */\n              dup4\n                /* \"crowdFunding.sol\":1366:1376  newRequest */\n              dup2\n                /* \"crowdFunding.sol\":1366:1388  newRequest.description */\n              0x00\n              add\n                /* \"crowdFunding.sol\":1366:1402  newRequest.description = description */\n              swap1\n              dup2\n              tag_82\n              swap2\n              swap1\n              tag_83\n              jump\t// in\n            tag_82:\n              pop\n                /* \"crowdFunding.sol\":1431:1436  value */\n              dup3\n                /* \"crowdFunding.sol\":1412:1422  newRequest */\n              dup2\n                /* \"crowdFunding.sol\":1412:1428  newRequest.value */\n              0x01\n              add\n                /* \"crowdFunding.sol\":1412:1436  newRequest.value = value */\n              dup2\n              swap1\n              sstore\n              pop\n                /* \"crowdFunding.sol\":1469:1478  recipient */\n              dup2\n                /* \"crowdFunding.sol\":1446:1456  newRequest */\n              dup2\n                /* \"crowdFunding.sol\":1446:1466  newRequest.recipient */\n              0x02\n              add\n              0x00\n                /* \"crowdFunding.sol\":1446:1478  newRequest.recipient = recipient */\n              0x0100\n              exp\n              dup2\n              sload\n              dup2\n              0xffffffffffffffffffffffffffffffffffffffff\n              mul\n              not\n              and\n              swap1\n              dup4\n              0xffffffffffffffffffffffffffffffffffffffff\n              and\n              mul\n              or\n              swap1\n              sstore\n              pop\n                /* \"crowdFunding.sol\":1510:1515  false */\n              0x00\n                /* \"crowdFunding.sol\":1488:1498  newRequest */\n              dup2\n                /* \"crowdFunding.sol\":1488:1507  newRequest.complete */\n              0x02\n              add\n              0x14\n                /* \"crowdFunding.sol\":1488:1515  newRequest.complete = false */\n              0x0100\n              exp\n              dup2\n              sload\n              dup2\n              0xff\n              mul\n              not\n              and\n              swap1\n              dup4\n              iszero\n              iszero\n              mul\n              or\n              swap1\n              sstore\n              pop\n                /* \"crowdFunding.sol\":1548:1549  0 */\n              0x00\n                /* \"crowdFunding.sol\":1525:1535  newRequest */\n              dup2\n                /* \"crowdFunding.sol\":1525:1545  newRequest.voteCount */\n              0x03\n              add\n                /* \"crowdFunding.sol\":1525:1549  newRequest.voteCount = 0 */\n              dup2\n              swap1\n              sstore\n              pop\n                /* \"crowdFunding.sol\":1302:1556  {... */\n              pop\n                /* \"crowdFunding.sol\":1201:1556  function makeRequest( string memory description, uint value, address payable recipient) public admin {... */\n              pop\n              pop\n              pop\n              jump\t// out\n                /* \"crowdFunding.sol\":2268:2538  function getCrowdFundingDetails()public view returns (uint, uint, uint, address, uint) {... */\n            tag_25:\n                /* \"crowdFunding.sol\":2322:2326  uint */\n              0x00\n                /* \"crowdFunding.sol\":2328:2332  uint */\n              dup1\n                /* \"crowdFunding.sol\":2334:2338  uint */\n              0x00\n                /* \"crowdFunding.sol\":2340:2347  address */\n              dup1\n                /* \"crowdFunding.sol\":2349:2353  uint */\n              0x00\n                /* \"crowdFunding.sol\":2386:2399  minimumAmount */\n              sload(0x02)\n                /* \"crowdFunding.sol\":2413:2429  totalContributor */\n              sload(0x04)\n                /* \"crowdFunding.sol\":2443:2451  requests */\n              0x03\n                /* \"crowdFunding.sol\":2443:2458  requests.length */\n              dup1\n              sload\n              swap1\n              pop\n                /* \"crowdFunding.sol\":2472:2477  owner */\n              0x00\n              dup1\n              sload\n              swap1\n              0x0100\n              exp\n              swap1\n              div\n              0xffffffffffffffffffffffffffffffffffffffff\n              and\n                /* \"crowdFunding.sol\":2491:2512  address(this).balance */\n              selfbalance\n                /* \"crowdFunding.sol\":2366:2522  return(... */\n              swap5\n              pop\n              swap5\n              pop\n              swap5\n              pop\n              swap5\n              pop\n              swap5\n              pop\n                /* \"crowdFunding.sol\":2268:2538  function getCrowdFundingDetails()public view returns (uint, uint, uint, address, uint) {... */\n              swap1\n              swap2\n              swap3\n              swap4\n              swap5\n              jump\t// out\n                /* \"crowdFunding.sol\":2168:2262  function viewBalance() public view returns (uint){... */\n            tag_30:\n                /* \"crowdFunding.sol\":2212:2216  uint */\n              0x00\n                /* \"crowdFunding.sol\":2234:2255  address(this).balance */\n              selfbalance\n                /* \"crowdFunding.sol\":2227:2255  return address(this).balance */\n              swap1\n              pop\n                /* \"crowdFunding.sol\":2168:2262  function viewBalance() public view returns (uint){... */\n              swap1\n              jump\t// out\n                /* \"crowdFunding.sol\":816:844  uint public totalContributor */\n            tag_35:\n              sload(0x04)\n              dup2\n              jump\t// out\n                /* \"crowdFunding.sol\":785:810  Request[] public requests */\n            tag_40:\n              0x03\n              dup2\n              dup2\n              sload\n              dup2\n              lt\n              tag_86\n              jumpi\n              0x00\n              dup1\n              revert\n            tag_86:\n              swap1\n              0x00\n              mstore\n              keccak256(0x00, 0x20)\n              swap1\n              0x05\n              mul\n              add\n              0x00\n              swap2\n              pop\n              swap1\n              pop\n              dup1\n              0x00\n              add\n              dup1\n              sload\n              tag_88\n              swap1\n              tag_89\n              jump\t// in\n            tag_88:\n              dup1\n              0x1f\n              add\n              0x20\n              dup1\n              swap2\n              div\n              mul\n              0x20\n              add\n              mload(0x40)\n              swap1\n              dup2\n              add\n              0x40\n              mstore\n              dup1\n              swap3\n              swap2\n              swap1\n              dup2\n              dup2\n              mstore\n              0x20\n              add\n              dup3\n              dup1\n              sload\n              tag_90\n              swap1\n              tag_89\n              jump\t// in\n            tag_90:\n              dup1\n              iszero\n              tag_91\n              jumpi\n              dup1\n              0x1f\n              lt\n              tag_92\n              jumpi\n              0x0100\n              dup1\n              dup4\n              sload\n              div\n              mul\n              dup4\n              mstore\n              swap2\n              0x20\n              add\n              swap2\n              jump(tag_91)\n            tag_92:\n              dup3\n              add\n              swap2\n              swap1\n              0x00\n              mstore\n              keccak256(0x00, 0x20)\n              swap1\n            tag_93:\n              dup2\n              sload\n              dup2\n              mstore\n              swap1\n              0x01\n              add\n              swap1\n              0x20\n              add\n              dup1\n              dup4\n              gt\n              tag_93\n              jumpi\n              dup3\n              swap1\n              sub\n              0x1f\n              and\n              dup3\n              add\n              swap2\n            tag_91:\n              pop\n              pop\n              pop\n              pop\n              pop\n              swap1\n              dup1\n              0x01\n              add\n              sload\n              swap1\n              dup1\n              0x02\n              add\n              0x00\n              swap1\n              sload\n              swap1\n              0x0100\n              exp\n              swap1\n              div\n              0xffffffffffffffffffffffffffffffffffffffff\n              and\n              swap1\n              dup1\n              0x02\n              add\n              0x14\n              swap1\n              sload\n              swap1\n              0x0100\n              exp\n              swap1\n              div\n              0xff\n              and\n              swap1\n              dup1\n              0x03\n              add\n              sload\n              swap1\n              pop\n              dup6\n              jump\t// out\n                /* \"crowdFunding.sol\":686:706  address public owner */\n            tag_45:\n              0x00\n              dup1\n              sload\n              swap1\n              0x0100\n              exp\n              swap1\n              div\n              0xffffffffffffffffffffffffffffffffffffffff\n              and\n              dup2\n              jump\t// out\n                /* \"crowdFunding.sol\":754:779  uint public minimumAmount */\n            tag_50:\n              sload(0x02)\n              dup2\n              jump\t// out\n                /* \"crowdFunding.sol\":2544:2632  function getRequest() public view returns (uint) {... */\n            tag_54:\n                /* \"crowdFunding.sol\":2587:2591  uint */\n              0x00\n                /* \"crowdFunding.sol\":2610:2618  requests */\n              0x03\n                /* \"crowdFunding.sol\":2610:2625  requests.length */\n              dup1\n              sload\n              swap1\n              pop\n                /* \"crowdFunding.sol\":2603:2625  return requests.length */\n              swap1\n              pop\n                /* \"crowdFunding.sol\":2544:2632  function getRequest() public view returns (uint) {... */\n              swap1\n              jump\t// out\n                /* \"crowdFunding.sol\":1039:1195  function contribute() public payable{... */\n            tag_57:\n                /* \"crowdFunding.sol\":1105:1118  minimumAmount */\n              sload(0x02)\n                /* \"crowdFunding.sol\":1093:1102  msg.value */\n              callvalue\n                /* \"crowdFunding.sol\":1093:1118  msg.value > minimumAmount */\n              gt\n                /* \"crowdFunding.sol\":1085:1119  require(msg.value > minimumAmount) */\n              tag_96\n              jumpi\n              0x00\n              dup1\n              revert\n            tag_96:\n                /* \"crowdFunding.sol\":1155:1159  true */\n              0x01\n                /* \"crowdFunding.sol\":1129:1140  contributor */\n              dup1\n                /* \"crowdFunding.sol\":1129:1152  contributor[msg.sender] */\n              0x00\n                /* \"crowdFunding.sol\":1141:1151  msg.sender */\n              caller\n                /* \"crowdFunding.sol\":1129:1152  contributor[msg.sender] */\n              0xffffffffffffffffffffffffffffffffffffffff\n              and\n              0xffffffffffffffffffffffffffffffffffffffff\n              and\n              dup2\n              mstore\n              0x20\n              add\n              swap1\n              dup2\n              mstore\n              0x20\n              add\n              0x00\n              keccak256\n              0x00\n                /* \"crowdFunding.sol\":1129:1159  contributor[msg.sender] = true */\n              0x0100\n              exp\n              dup2\n              sload\n              dup2\n              0xff\n              mul\n              not\n              and\n              swap1\n              dup4\n              iszero\n              iszero\n              mul\n              or\n              swap1\n              sstore\n              pop\n                /* \"crowdFunding.sol\":1169:1185  totalContributor */\n              0x04\n              0x00\n                /* \"crowdFunding.sol\":1169:1187  totalContributor++ */\n              dup2\n              sload\n              dup1\n              swap3\n              swap2\n              swap1\n              tag_97\n              swap1\n              tag_98\n              jump\t// in\n            tag_97:\n              swap2\n              swap1\n              pop\n              sstore\n              pop\n                /* \"crowdFunding.sol\":1039:1195  function contribute() public payable{... */\n              jump\t// out\n                /* \"crowdFunding.sol\":1562:1842  function approveRequest(uint index) public {... */\n            tag_61:\n                /* \"crowdFunding.sol\":1632:1643  contributor */\n              0x01\n                /* \"crowdFunding.sol\":1632:1655  contributor[msg.sender] */\n              0x00\n                /* \"crowdFunding.sol\":1644:1654  msg.sender */\n              caller\n                /* \"crowdFunding.sol\":1632:1655  contributor[msg.sender] */\n              0xffffffffffffffffffffffffffffffffffffffff\n              and\n              0xffffffffffffffffffffffffffffffffffffffff\n              and\n              dup2\n              mstore\n              0x20\n              add\n              swap1\n              dup2\n              mstore\n              0x20\n              add\n              0x00\n              keccak256\n              0x00\n              swap1\n              sload\n              swap1\n              0x0100\n              exp\n              swap1\n              div\n              0xff\n              and\n                /* \"crowdFunding.sol\":1624:1656  require(contributor[msg.sender]) */\n              tag_100\n              jumpi\n              0x00\n              dup1\n              revert\n            tag_100:\n                /* \"crowdFunding.sol\":1675:1683  requests */\n              0x03\n                /* \"crowdFunding.sol\":1684:1689  index */\n              dup2\n                /* \"crowdFunding.sol\":1675:1690  requests[index] */\n              dup2\n              sload\n              dup2\n              lt\n              tag_101\n              jumpi\n              tag_102\n              tag_67\n              jump\t// in\n            tag_102:\n            tag_101:\n              swap1\n              0x00\n              mstore\n              keccak256(0x00, 0x20)\n              swap1\n              0x05\n              mul\n              add\n                /* \"crowdFunding.sol\":1675:1697  requests[index].voters */\n              0x04\n              add\n                /* \"crowdFunding.sol\":1675:1709  requests[index].voters[msg.sender] */\n              0x00\n                /* \"crowdFunding.sol\":1698:1708  msg.sender */\n              caller\n                /* \"crowdFunding.sol\":1675:1709  requests[index].voters[msg.sender] */\n              0xffffffffffffffffffffffffffffffffffffffff\n              and\n              0xffffffffffffffffffffffffffffffffffffffff\n              and\n              dup2\n              mstore\n              0x20\n              add\n              swap1\n              dup2\n              mstore\n              0x20\n              add\n              0x00\n              keccak256\n              0x00\n              swap1\n              sload\n              swap1\n              0x0100\n              exp\n              swap1\n              div\n              0xff\n              and\n                /* \"crowdFunding.sol\":1674:1709  !requests[index].voters[msg.sender] */\n              iszero\n                /* \"crowdFunding.sol\":1666:1710  require(!requests[index].voters[msg.sender]) */\n              tag_104\n              jumpi\n              0x00\n              dup1\n              revert\n            tag_104:\n                /* \"crowdFunding.sol\":1721:1744  Request storage request */\n              0x00\n                /* \"crowdFunding.sol\":1747:1755  requests */\n              0x03\n                /* \"crowdFunding.sol\":1756:1761  index */\n              dup3\n                /* \"crowdFunding.sol\":1747:1762  requests[index] */\n              dup2\n              sload\n              dup2\n              lt\n              tag_105\n              jumpi\n              tag_106\n              tag_67\n              jump\t// in\n            tag_106:\n            tag_105:\n              swap1\n              0x00\n              mstore\n              keccak256(0x00, 0x20)\n              swap1\n              0x05\n              mul\n              add\n                /* \"crowdFunding.sol\":1721:1762  Request storage request = requests[index] */\n              swap1\n              pop\n                /* \"crowdFunding.sol\":1772:1779  request */\n              dup1\n                /* \"crowdFunding.sol\":1772:1789  request.voteCount */\n              0x03\n              add\n              0x00\n                /* \"crowdFunding.sol\":1772:1791  request.voteCount++ */\n              dup2\n              sload\n              dup1\n              swap3\n              swap2\n              swap1\n              tag_108\n              swap1\n              tag_98\n              jump\t// in\n            tag_108:\n              swap2\n              swap1\n              pop\n              sstore\n              pop\n                /* \"crowdFunding.sol\":1830:1834  true */\n              0x01\n                /* \"crowdFunding.sol\":1801:1808  request */\n              dup2\n                /* \"crowdFunding.sol\":1801:1815  request.voters */\n              0x04\n              add\n                /* \"crowdFunding.sol\":1801:1827  request.voters[msg.sender] */\n              0x00\n                /* \"crowdFunding.sol\":1816:1826  msg.sender */\n              caller\n                /* \"crowdFunding.sol\":1801:1827  request.voters[msg.sender] */\n              0xffffffffffffffffffffffffffffffffffffffff\n              and\n              0xffffffffffffffffffffffffffffffffffffffff\n              and\n              dup2\n              mstore\n              0x20\n              add\n              swap1\n              dup2\n              mstore\n              0x20\n              add\n              0x00\n              keccak256\n              0x00\n                /* \"crowdFunding.sol\":1801:1834  request.voters[msg.sender] = true */\n              0x0100\n              exp\n              dup2\n              sload\n              dup2\n              0xff\n              mul\n              not\n              and\n              swap1\n              dup4\n              iszero\n              iszero\n              mul\n              or\n              swap1\n              sstore\n              pop\n                /* \"crowdFunding.sol\":1605:1842  {... */\n              pop\n                /* \"crowdFunding.sol\":1562:1842  function approveRequest(uint index) public {... */\n              pop\n              jump\t// out\n                /* \"#utility.yul\":7:82   */\n            tag_109:\n                /* \"#utility.yul\":40:46   */\n              0x00\n                /* \"#utility.yul\":73:75   */\n              0x40\n                /* \"#utility.yul\":67:76   */\n              mload\n                /* \"#utility.yul\":57:76   */\n              swap1\n              pop\n                /* \"#utility.yul\":7:82   */\n              swap1\n              jump\t// out\n                /* \"#utility.yul\":88:205   */\n            tag_110:\n                /* \"#utility.yul\":197:198   */\n              0x00\n                /* \"#utility.yul\":194:195   */\n              dup1\n                /* \"#utility.yul\":187:199   */\n              revert\n                /* \"#utility.yul\":211:328   */\n            tag_111:\n                /* \"#utility.yul\":320:321   */\n              0x00\n                /* \"#utility.yul\":317:318   */\n              dup1\n                /* \"#utility.yul\":310:322   */\n              revert\n                /* \"#utility.yul\":334:411   */\n            tag_112:\n                /* \"#utility.yul\":371:378   */\n              0x00\n                /* \"#utility.yul\":400:405   */\n              dup2\n                /* \"#utility.yul\":389:405   */\n              swap1\n              pop\n                /* \"#utility.yul\":334:411   */\n              swap2\n              swap1\n              pop\n              jump\t// out\n                /* \"#utility.yul\":417:539   */\n            tag_113:\n                /* \"#utility.yul\":490:514   */\n              tag_163\n                /* \"#utility.yul\":508:513   */\n              dup2\n                /* \"#utility.yul\":490:514   */\n              tag_112\n              jump\t// in\n            tag_163:\n                /* \"#utility.yul\":483:488   */\n              dup2\n                /* \"#utility.yul\":480:515   */\n              eq\n                /* \"#utility.yul\":470:533   */\n              tag_164\n              jumpi\n                /* \"#utility.yul\":529:530   */\n              0x00\n                /* \"#utility.yul\":526:527   */\n              dup1\n                /* \"#utility.yul\":519:531   */\n              revert\n                /* \"#utility.yul\":470:533   */\n            tag_164:\n                /* \"#utility.yul\":417:539   */\n              pop\n              jump\t// out\n                /* \"#utility.yul\":545:684   */\n            tag_114:\n                /* \"#utility.yul\":591:596   */\n              0x00\n                /* \"#utility.yul\":629:635   */\n              dup2\n                /* \"#utility.yul\":616:636   */\n              calldataload\n                /* \"#utility.yul\":607:636   */\n              swap1\n              pop\n                /* \"#utility.yul\":645:678   */\n              tag_166\n                /* \"#utility.yul\":672:677   */\n              dup2\n                /* \"#utility.yul\":645:678   */\n              tag_113\n              jump\t// in\n            tag_166:\n                /* \"#utility.yul\":545:684   */\n              swap3\n              swap2\n              pop\n              pop\n              jump\t// out\n                /* \"#utility.yul\":690:1019   */\n            tag_16:\n                /* \"#utility.yul\":749:755   */\n              0x00\n                /* \"#utility.yul\":798:800   */\n              0x20\n                /* \"#utility.yul\":786:795   */\n              dup3\n                /* \"#utility.yul\":777:784   */\n              dup5\n                /* \"#utility.yul\":773:796   */\n              sub\n                /* \"#utility.yul\":769:801   */\n              slt\n                /* \"#utility.yul\":766:885   */\n              iszero\n              tag_168\n              jumpi\n                /* \"#utility.yul\":804:883   */\n              tag_169\n              tag_110\n              jump\t// in\n            tag_169:\n                /* \"#utility.yul\":766:885   */\n            tag_168:\n                /* \"#utility.yul\":924:925   */\n              0x00\n                /* \"#utility.yul\":949:1002   */\n              tag_170\n                /* \"#utility.yul\":994:1001   */\n              dup5\n                /* \"#utility.yul\":985:991   */\n              dup3\n                /* \"#utility.yul\":974:983   */\n              dup6\n                /* \"#utility.yul\":970:992   */\n              add\n                /* \"#utility.yul\":949:1002   */\n              tag_114\n              jump\t// in\n            tag_170:\n                /* \"#utility.yul\":939:1002   */\n              swap2\n              pop\n                /* \"#utility.yul\":895:1012   */\n              pop\n                /* \"#utility.yul\":690:1019   */\n              swap3\n              swap2\n              pop\n              pop\n              jump\t// out\n                /* \"#utility.yul\":1025:1142   */\n            tag_115:\n                /* \"#utility.yul\":1134:1135   */\n              0x00\n                /* \"#utility.yul\":1131:1132   */\n              dup1\n                /* \"#utility.yul\":1124:1136   */\n              revert\n                /* \"#utility.yul\":1148:1265   */\n            tag_116:\n                /* \"#utility.yul\":1257:1258   */\n              0x00\n                /* \"#utility.yul\":1254:1255   */\n              dup1\n                /* \"#utility.yul\":1247:1259   */\n              revert\n                /* \"#utility.yul\":1271:1373   */\n            tag_117:\n                /* \"#utility.yul\":1312:1318   */\n              0x00\n                /* \"#utility.yul\":1363:1365   */\n              0x1f\n                /* \"#utility.yul\":1359:1366   */\n              not\n                /* \"#utility.yul\":1354:1356   */\n              0x1f\n                /* \"#utility.yul\":1347:1352   */\n              dup4\n                /* \"#utility.yul\":1343:1357   */\n              add\n                /* \"#utility.yul\":1339:1367   */\n              and\n                /* \"#utility.yul\":1329:1367   */\n              swap1\n              pop\n                /* \"#utility.yul\":1271:1373   */\n              swap2\n              swap1\n              pop\n              jump\t// out\n                /* \"#utility.yul\":1379:1559   */\n            tag_118:\n                /* \"#utility.yul\":1427:1504   */\n              0x4e487b7100000000000000000000000000000000000000000000000000000000\n                /* \"#utility.yul\":1424:1425   */\n              0x00\n                /* \"#utility.yul\":1417:1505   */\n              mstore\n                /* \"#utility.yul\":1524:1528   */\n              0x41\n                /* \"#utility.yul\":1521:1522   */\n              0x04\n                /* \"#utility.yul\":1514:1529   */\n              mstore\n                /* \"#utility.yul\":1548:1552   */\n              0x24\n                /* \"#utility.yul\":1545:1546   */\n              0x00\n                /* \"#utility.yul\":1538:1553   */\n              revert\n                /* \"#utility.yul\":1565:1846   */\n            tag_119:\n                /* \"#utility.yul\":1648:1675   */\n              tag_176\n                /* \"#utility.yul\":1670:1674   */\n              dup3\n                /* \"#utility.yul\":1648:1675   */\n              tag_117\n              jump\t// in\n            tag_176:\n                /* \"#utility.yul\":1640:1646   */\n              dup2\n                /* \"#utility.yul\":1636:1676   */\n              add\n                /* \"#utility.yul\":1778:1784   */\n              dup2\n                /* \"#utility.yul\":1766:1776   */\n              dup2\n                /* \"#utility.yul\":1763:1785   */\n              lt\n                /* \"#utility.yul\":1742:1760   */\n              0xffffffffffffffff\n                /* \"#utility.yul\":1730:1740   */\n              dup3\n                /* \"#utility.yul\":1727:1761   */\n              gt\n                /* \"#utility.yul\":1724:1786   */\n              or\n                /* \"#utility.yul\":1721:1809   */\n              iszero\n              tag_177\n              jumpi\n                /* \"#utility.yul\":1789:1807   */\n              tag_178\n              tag_118\n              jump\t// in\n            tag_178:\n                /* \"#utility.yul\":1721:1809   */\n            tag_177:\n                /* \"#utility.yul\":1829:1839   */\n              dup1\n                /* \"#utility.yul\":1825:1827   */\n              0x40\n                /* \"#utility.yul\":1818:1840   */\n              mstore\n                /* \"#utility.yul\":1608:1846   */\n              pop\n                /* \"#utility.yul\":1565:1846   */\n              pop\n              pop\n              jump\t// out\n                /* \"#utility.yul\":1852:1981   */\n            tag_120:\n                /* \"#utility.yul\":1886:1892   */\n              0x00\n                /* \"#utility.yul\":1913:1933   */\n              tag_180\n              tag_109\n              jump\t// in\n            tag_180:\n                /* \"#utility.yul\":1903:1933   */\n              swap1\n              pop\n                /* \"#utility.yul\":1942:1975   */\n              tag_181\n                /* \"#utility.yul\":1970:1974   */\n              dup3\n                /* \"#utility.yul\":1962:1968   */\n              dup3\n                /* \"#utility.yul\":1942:1975   */\n              tag_119\n              jump\t// in\n            tag_181:\n                /* \"#utility.yul\":1852:1981   */\n              swap2\n              swap1\n              pop\n              jump\t// out\n                /* \"#utility.yul\":1987:2295   */\n            tag_121:\n                /* \"#utility.yul\":2049:2053   */\n              0x00\n                /* \"#utility.yul\":2139:2157   */\n              0xffffffffffffffff\n                /* \"#utility.yul\":2131:2137   */\n              dup3\n                /* \"#utility.yul\":2128:2158   */\n              gt\n                /* \"#utility.yul\":2125:2181   */\n              iszero\n              tag_183\n              jumpi\n                /* \"#utility.yul\":2161:2179   */\n              tag_184\n              tag_118\n              jump\t// in\n            tag_184:\n                /* \"#utility.yul\":2125:2181   */\n            tag_183:\n                /* \"#utility.yul\":2199:2228   */\n              tag_185\n                /* \"#utility.yul\":2221:2227   */\n              dup3\n                /* \"#utility.yul\":2199:2228   */\n              tag_117\n              jump\t// in\n            tag_185:\n                /* \"#utility.yul\":2191:2228   */\n              swap1\n              pop\n                /* \"#utility.yul\":2283:2287   */\n              0x20\n                /* \"#utility.yul\":2277:2281   */\n              dup2\n                /* \"#utility.yul\":2273:2288   */\n              add\n                /* \"#utility.yul\":2265:2288   */\n              swap1\n              pop\n                /* \"#utility.yul\":1987:2295   */\n              swap2\n              swap1\n              pop\n              jump\t// out\n                /* \"#utility.yul\":2301:2455   */\n            tag_122:\n                /* \"#utility.yul\":2385:2391   */\n              dup3\n                /* \"#utility.yul\":2380:2383   */\n              dup2\n                /* \"#utility.yul\":2375:2378   */\n              dup4\n                /* \"#utility.yul\":2362:2392   */\n              calldatacopy\n                /* \"#utility.yul\":2447:2448   */\n              0x00\n                /* \"#utility.yul\":2438:2444   */\n              dup4\n                /* \"#utility.yul\":2433:2436   */\n              dup4\n                /* \"#utility.yul\":2429:2445   */\n              add\n                /* \"#utility.yul\":2422:2449   */\n              mstore\n                /* \"#utility.yul\":2301:2455   */\n              pop\n              pop\n              pop\n              jump\t// out\n                /* \"#utility.yul\":2461:2873   */\n            tag_123:\n                /* \"#utility.yul\":2539:2544   */\n              0x00\n                /* \"#utility.yul\":2564:2630   */\n              tag_188\n                /* \"#utility.yul\":2580:2629   */\n              tag_189\n                /* \"#utility.yul\":2622:2628   */\n              dup5\n                /* \"#utility.yul\":2580:2629   */\n              tag_121\n              jump\t// in\n            tag_189:\n                /* \"#utility.yul\":2564:2630   */\n              tag_120\n              jump\t// in\n            tag_188:\n                /* \"#utility.yul\":2555:2630   */\n              swap1\n              pop\n                /* \"#utility.yul\":2653:2659   */\n              dup3\n                /* \"#utility.yul\":2646:2651   */\n              dup2\n                /* \"#utility.yul\":2639:2660   */\n              mstore\n                /* \"#utility.yul\":2691:2695   */\n              0x20\n                /* \"#utility.yul\":2684:2689   */\n              dup2\n                /* \"#utility.yul\":2680:2696   */\n              add\n                /* \"#utility.yul\":2729:2732   */\n              dup5\n                /* \"#utility.yul\":2720:2726   */\n              dup5\n                /* \"#utility.yul\":2715:2718   */\n              dup5\n                /* \"#utility.yul\":2711:2727   */\n              add\n                /* \"#utility.yul\":2708:2733   */\n              gt\n                /* \"#utility.yul\":2705:2817   */\n              iszero\n              tag_190\n              jumpi\n                /* \"#utility.yul\":2736:2815   */\n              tag_191\n              tag_116\n              jump\t// in\n            tag_191:\n                /* \"#utility.yul\":2705:2817   */\n            tag_190:\n                /* \"#utility.yul\":2826:2867   */\n              tag_192\n                /* \"#utility.yul\":2860:2866   */\n              dup5\n                /* \"#utility.yul\":2855:2858   */\n              dup3\n                /* \"#utility.yul\":2850:2853   */\n              dup6\n                /* \"#utility.yul\":2826:2867   */\n              tag_122\n              jump\t// in\n            tag_192:\n                /* \"#utility.yul\":2545:2873   */\n              pop\n                /* \"#utility.yul\":2461:2873   */\n              swap4\n              swap3\n              pop\n              pop\n              pop\n              jump\t// out\n                /* \"#utility.yul\":2893:3233   */\n            tag_124:\n                /* \"#utility.yul\":2949:2954   */\n              0x00\n                /* \"#utility.yul\":2998:3001   */\n              dup3\n                /* \"#utility.yul\":2991:2995   */\n              0x1f\n                /* \"#utility.yul\":2983:2989   */\n              dup4\n                /* \"#utility.yul\":2979:2996   */\n              add\n                /* \"#utility.yul\":2975:3002   */\n              slt\n                /* \"#utility.yul\":2965:3087   */\n              tag_194\n              jumpi\n                /* \"#utility.yul\":3006:3085   */\n              tag_195\n              tag_115\n              jump\t// in\n            tag_195:\n                /* \"#utility.yul\":2965:3087   */\n            tag_194:\n                /* \"#utility.yul\":3123:3129   */\n              dup2\n                /* \"#utility.yul\":3110:3130   */\n              calldataload\n                /* \"#utility.yul\":3148:3227   */\n              tag_196\n                /* \"#utility.yul\":3223:3226   */\n              dup5\n                /* \"#utility.yul\":3215:3221   */\n              dup3\n                /* \"#utility.yul\":3208:3212   */\n              0x20\n                /* \"#utility.yul\":3200:3206   */\n              dup7\n                /* \"#utility.yul\":3196:3213   */\n              add\n                /* \"#utility.yul\":3148:3227   */\n              tag_123\n              jump\t// in\n            tag_196:\n                /* \"#utility.yul\":3139:3227   */\n              swap2\n              pop\n                /* \"#utility.yul\":2955:3233   */\n              pop\n                /* \"#utility.yul\":2893:3233   */\n              swap3\n              swap2\n              pop\n              pop\n              jump\t// out\n                /* \"#utility.yul\":3239:3365   */\n            tag_125:\n                /* \"#utility.yul\":3276:3283   */\n              0x00\n                /* \"#utility.yul\":3316:3358   */\n              0xffffffffffffffffffffffffffffffffffffffff\n                /* \"#utility.yul\":3309:3314   */\n              dup3\n                /* \"#utility.yul\":3305:3359   */\n              and\n                /* \"#utility.yul\":3294:3359   */\n              swap1\n              pop\n                /* \"#utility.yul\":3239:3365   */\n              swap2\n              swap1\n              pop\n              jump\t// out\n                /* \"#utility.yul\":3371:3475   */\n            tag_126:\n                /* \"#utility.yul\":3416:3423   */\n              0x00\n                /* \"#utility.yul\":3445:3469   */\n              tag_199\n                /* \"#utility.yul\":3463:3468   */\n              dup3\n                /* \"#utility.yul\":3445:3469   */\n              tag_125\n              jump\t// in\n            tag_199:\n                /* \"#utility.yul\":3434:3469   */\n              swap1\n              pop\n                /* \"#utility.yul\":3371:3475   */\n              swap2\n              swap1\n              pop\n              jump\t// out\n                /* \"#utility.yul\":3481:3619   */\n            tag_127:\n                /* \"#utility.yul\":3562:3594   */\n              tag_201\n                /* \"#utility.yul\":3588:3593   */\n              dup2\n                /* \"#utility.yul\":3562:3594   */\n              tag_126\n              jump\t// in\n            tag_201:\n                /* \"#utility.yul\":3555:3560   */\n              dup2\n                /* \"#utility.yul\":3552:3595   */\n              eq\n                /* \"#utility.yul\":3542:3613   */\n              tag_202\n              jumpi\n                /* \"#utility.yul\":3609:3610   */\n              0x00\n                /* \"#utility.yul\":3606:3607   */\n              dup1\n                /* \"#utility.yul\":3599:3611   */\n              revert\n                /* \"#utility.yul\":3542:3613   */\n            tag_202:\n                /* \"#utility.yul\":3481:3619   */\n              pop\n              jump\t// out\n                /* \"#utility.yul\":3625:3780   */\n            tag_128:\n                /* \"#utility.yul\":3679:3684   */\n              0x00\n                /* \"#utility.yul\":3717:3723   */\n              dup2\n                /* \"#utility.yul\":3704:3724   */\n              calldataload\n                /* \"#utility.yul\":3695:3724   */\n              swap1\n              pop\n                /* \"#utility.yul\":3733:3774   */\n              tag_204\n                /* \"#utility.yul\":3768:3773   */\n              dup2\n                /* \"#utility.yul\":3733:3774   */\n              tag_127\n              jump\t// in\n            tag_204:\n                /* \"#utility.yul\":3625:3780   */\n              swap3\n              swap2\n              pop\n              pop\n              jump\t// out\n                /* \"#utility.yul\":3786:4601   */\n            tag_21:\n                /* \"#utility.yul\":3881:3887   */\n              0x00\n                /* \"#utility.yul\":3889:3895   */\n              dup1\n                /* \"#utility.yul\":3897:3903   */\n              0x00\n                /* \"#utility.yul\":3946:3948   */\n              0x60\n                /* \"#utility.yul\":3934:3943   */\n              dup5\n                /* \"#utility.yul\":3925:3932   */\n              dup7\n                /* \"#utility.yul\":3921:3944   */\n              sub\n                /* \"#utility.yul\":3917:3949   */\n              slt\n                /* \"#utility.yul\":3914:4033   */\n              iszero\n              tag_206\n              jumpi\n                /* \"#utility.yul\":3952:4031   */\n              tag_207\n              tag_110\n              jump\t// in\n            tag_207:\n                /* \"#utility.yul\":3914:4033   */\n            tag_206:\n                /* \"#utility.yul\":4100:4101   */\n              0x00\n                /* \"#utility.yul\":4089:4098   */\n              dup5\n                /* \"#utility.yul\":4085:4102   */\n              add\n                /* \"#utility.yul\":4072:4103   */\n              calldataload\n                /* \"#utility.yul\":4130:4148   */\n              0xffffffffffffffff\n                /* \"#utility.yul\":4122:4128   */\n              dup2\n                /* \"#utility.yul\":4119:4149   */\n              gt\n                /* \"#utility.yul\":4116:4233   */\n              iszero\n              tag_208\n              jumpi\n                /* \"#utility.yul\":4152:4231   */\n              tag_209\n              tag_111\n              jump\t// in\n            tag_209:\n                /* \"#utility.yul\":4116:4233   */\n            tag_208:\n                /* \"#utility.yul\":4257:4320   */\n              tag_210\n                /* \"#utility.yul\":4312:4319   */\n              dup7\n                /* \"#utility.yul\":4303:4309   */\n              dup3\n                /* \"#utility.yul\":4292:4301   */\n              dup8\n                /* \"#utility.yul\":4288:4310   */\n              add\n                /* \"#utility.yul\":4257:4320   */\n              tag_124\n              jump\t// in\n            tag_210:\n                /* \"#utility.yul\":4247:4320   */\n              swap4\n              pop\n                /* \"#utility.yul\":4043:4330   */\n              pop\n                /* \"#utility.yul\":4369:4371   */\n              0x20\n                /* \"#utility.yul\":4395:4448   */\n              tag_211\n                /* \"#utility.yul\":4440:4447   */\n              dup7\n                /* \"#utility.yul\":4431:4437   */\n              dup3\n                /* \"#utility.yul\":4420:4429   */\n              dup8\n                /* \"#utility.yul\":4416:4438   */\n              add\n                /* \"#utility.yul\":4395:4448   */\n              tag_114\n              jump\t// in\n            tag_211:\n                /* \"#utility.yul\":4385:4448   */\n              swap3\n              pop\n                /* \"#utility.yul\":4340:4458   */\n              pop\n                /* \"#utility.yul\":4497:4499   */\n              0x40\n                /* \"#utility.yul\":4523:4584   */\n              tag_212\n                /* \"#utility.yul\":4576:4583   */\n              dup7\n                /* \"#utility.yul\":4567:4573   */\n              dup3\n                /* \"#utility.yul\":4556:4565   */\n              dup8\n                /* \"#utility.yul\":4552:4574   */\n              add\n                /* \"#utility.yul\":4523:4584   */\n              tag_128\n              jump\t// in\n            tag_212:\n                /* \"#utility.yul\":4513:4584   */\n              swap2\n              pop\n                /* \"#utility.yul\":4468:4594   */\n              pop\n                /* \"#utility.yul\":3786:4601   */\n              swap3\n              pop\n              swap3\n              pop\n              swap3\n              jump\t// out\n                /* \"#utility.yul\":4607:4725   */\n            tag_129:\n                /* \"#utility.yul\":4694:4718   */\n              tag_214\n                /* \"#utility.yul\":4712:4717   */\n              dup2\n                /* \"#utility.yul\":4694:4718   */\n              tag_112\n              jump\t// in\n            tag_214:\n                /* \"#utility.yul\":4689:4692   */\n              dup3\n                /* \"#utility.yul\":4682:4719   */\n              mstore\n                /* \"#utility.yul\":4607:4725   */\n              pop\n              pop\n              jump\t// out\n                /* \"#utility.yul\":4731:4827   */\n            tag_130:\n                /* \"#utility.yul\":4768:4775   */\n              0x00\n                /* \"#utility.yul\":4797:4821   */\n              tag_216\n                /* \"#utility.yul\":4815:4820   */\n              dup3\n                /* \"#utility.yul\":4797:4821   */\n              tag_125\n              jump\t// in\n            tag_216:\n                /* \"#utility.yul\":4786:4821   */\n              swap1\n              pop\n                /* \"#utility.yul\":4731:4827   */\n              swap2\n              swap1\n              pop\n              jump\t// out\n                /* \"#utility.yul\":4833:4951   */\n            tag_131:\n                /* \"#utility.yul\":4920:4944   */\n              tag_218\n                /* \"#utility.yul\":4938:4943   */\n              dup2\n                /* \"#utility.yul\":4920:4944   */\n              tag_130\n              jump\t// in\n            tag_218:\n                /* \"#utility.yul\":4915:4918   */\n              dup3\n                /* \"#utility.yul\":4908:4945   */\n              mstore\n                /* \"#utility.yul\":4833:4951   */\n              pop\n              pop\n              jump\t// out\n                /* \"#utility.yul\":4957:5621   */\n            tag_27:\n                /* \"#utility.yul\":5162:5166   */\n              0x00\n                /* \"#utility.yul\":5200:5203   */\n              0xa0\n                /* \"#utility.yul\":5189:5198   */\n              dup3\n                /* \"#utility.yul\":5185:5204   */\n              add\n                /* \"#utility.yul\":5177:5204   */\n              swap1\n              pop\n                /* \"#utility.yul\":5214:5285   */\n              tag_220\n                /* \"#utility.yul\":5282:5283   */\n              0x00\n                /* \"#utility.yul\":5271:5280   */\n              dup4\n                /* \"#utility.yul\":5267:5284   */\n              add\n                /* \"#utility.yul\":5258:5264   */\n              dup9\n                /* \"#utility.yul\":5214:5285   */\n              tag_129\n              jump\t// in\n            tag_220:\n                /* \"#utility.yul\":5295:5367   */\n              tag_221\n                /* \"#utility.yul\":5363:5365   */\n              0x20\n                /* \"#utility.yul\":5352:5361   */\n              dup4\n                /* \"#utility.yul\":5348:5366   */\n              add\n                /* \"#utility.yul\":5339:5345   */\n              dup8\n                /* \"#utility.yul\":5295:5367   */\n              tag_129\n              jump\t// in\n            tag_221:\n                /* \"#utility.yul\":5377:5449   */\n              tag_222\n                /* \"#utility.yul\":5445:5447   */\n              0x40\n                /* \"#utility.yul\":5434:5443   */\n              dup4\n                /* \"#utility.yul\":5430:5448   */\n              add\n                /* \"#utility.yul\":5421:5427   */\n              dup7\n                /* \"#utility.yul\":5377:5449   */\n              tag_129\n              jump\t// in\n            tag_222:\n                /* \"#utility.yul\":5459:5531   */\n              tag_223\n                /* \"#utility.yul\":5527:5529   */\n              0x60\n                /* \"#utility.yul\":5516:5525   */\n              dup4\n                /* \"#utility.yul\":5512:5530   */\n              add\n                /* \"#utility.yul\":5503:5509   */\n              dup6\n                /* \"#utility.yul\":5459:5531   */\n              tag_131\n              jump\t// in\n            tag_223:\n                /* \"#utility.yul\":5541:5614   */\n              tag_224\n                /* \"#utility.yul\":5609:5612   */\n              0x80\n                /* \"#utility.yul\":5598:5607   */\n              dup4\n                /* \"#utility.yul\":5594:5613   */\n              add\n                /* \"#utility.yul\":5585:5591   */\n              dup5\n                /* \"#utility.yul\":5541:5614   */\n              tag_129\n              jump\t// in\n            tag_224:\n                /* \"#utility.yul\":4957:5621   */\n              swap7\n              swap6\n              pop\n              pop\n              pop\n              pop\n              pop\n              pop\n              jump\t// out\n                /* \"#utility.yul\":5627:5849   */\n            tag_32:\n                /* \"#utility.yul\":5720:5724   */\n              0x00\n                /* \"#utility.yul\":5758:5760   */\n              0x20\n                /* \"#utility.yul\":5747:5756   */\n              dup3\n                /* \"#utility.yul\":5743:5761   */\n              add\n                /* \"#utility.yul\":5735:5761   */\n              swap1\n              pop\n                /* \"#utility.yul\":5771:5842   */\n              tag_226\n                /* \"#utility.yul\":5839:5840   */\n              0x00\n                /* \"#utility.yul\":5828:5837   */\n              dup4\n                /* \"#utility.yul\":5824:5841   */\n              add\n                /* \"#utility.yul\":5815:5821   */\n              dup5\n                /* \"#utility.yul\":5771:5842   */\n              tag_129\n              jump\t// in\n            tag_226:\n                /* \"#utility.yul\":5627:5849   */\n              swap3\n              swap2\n              pop\n              pop\n              jump\t// out\n                /* \"#utility.yul\":5855:5954   */\n            tag_132:\n                /* \"#utility.yul\":5907:5913   */\n              0x00\n                /* \"#utility.yul\":5941:5946   */\n              dup2\n                /* \"#utility.yul\":5935:5947   */\n              mload\n                /* \"#utility.yul\":5925:5947   */\n              swap1\n              pop\n                /* \"#utility.yul\":5855:5954   */\n              swap2\n              swap1\n              pop\n              jump\t// out\n                /* \"#utility.yul\":5960:6129   */\n            tag_133:\n                /* \"#utility.yul\":6044:6055   */\n              0x00\n                /* \"#utility.yul\":6078:6084   */\n              dup3\n                /* \"#utility.yul\":6073:6076   */\n              dup3\n                /* \"#utility.yul\":6066:6085   */\n              mstore\n                /* \"#utility.yul\":6118:6122   */\n              0x20\n                /* \"#utility.yul\":6113:6116   */\n              dup3\n                /* \"#utility.yul\":6109:6123   */\n              add\n                /* \"#utility.yul\":6094:6123   */\n              swap1\n              pop\n                /* \"#utility.yul\":5960:6129   */\n              swap3\n              swap2\n              pop\n              pop\n              jump\t// out\n                /* \"#utility.yul\":6135:6442   */\n            tag_134:\n                /* \"#utility.yul\":6203:6204   */\n              0x00\n                /* \"#utility.yul\":6213:6326   */\n            tag_230:\n                /* \"#utility.yul\":6227:6233   */\n              dup4\n                /* \"#utility.yul\":6224:6225   */\n              dup2\n                /* \"#utility.yul\":6221:6234   */\n              lt\n                /* \"#utility.yul\":6213:6326   */\n              iszero\n              tag_232\n              jumpi\n                /* \"#utility.yul\":6312:6313   */\n              dup1\n                /* \"#utility.yul\":6307:6310   */\n              dup3\n                /* \"#utility.yul\":6303:6314   */\n              add\n                /* \"#utility.yul\":6297:6315   */\n              mload\n                /* \"#utility.yul\":6293:6294   */\n              dup2\n                /* \"#utility.yul\":6288:6291   */\n              dup5\n                /* \"#utility.yul\":6284:6295   */\n              add\n                /* \"#utility.yul\":6277:6316   */\n              mstore\n                /* \"#utility.yul\":6249:6251   */\n              0x20\n                /* \"#utility.yul\":6246:6247   */\n              dup2\n                /* \"#utility.yul\":6242:6252   */\n              add\n                /* \"#utility.yul\":6237:6252   */\n              swap1\n              pop\n                /* \"#utility.yul\":6213:6326   */\n              jump(tag_230)\n            tag_232:\n                /* \"#utility.yul\":6344:6350   */\n              dup4\n                /* \"#utility.yul\":6341:6342   */\n              dup2\n                /* \"#utility.yul\":6338:6351   */\n              gt\n                /* \"#utility.yul\":6335:6436   */\n              iszero\n              tag_233\n              jumpi\n                /* \"#utility.yul\":6424:6425   */\n              0x00\n                /* \"#utility.yul\":6415:6421   */\n              dup5\n                /* \"#utility.yul\":6410:6413   */\n              dup5\n                /* \"#utility.yul\":6406:6422   */\n              add\n                /* \"#utility.yul\":6399:6426   */\n              mstore\n                /* \"#utility.yul\":6335:6436   */\n            tag_233:\n                /* \"#utility.yul\":6184:6442   */\n              pop\n                /* \"#utility.yul\":6135:6442   */\n              pop\n              pop\n              pop\n              jump\t// out\n                /* \"#utility.yul\":6448:6812   */\n            tag_135:\n                /* \"#utility.yul\":6536:6539   */\n              0x00\n                /* \"#utility.yul\":6564:6603   */\n              tag_235\n                /* \"#utility.yul\":6597:6602   */\n              dup3\n                /* \"#utility.yul\":6564:6603   */\n              tag_132\n              jump\t// in\n            tag_235:\n                /* \"#utility.yul\":6619:6690   */\n              tag_236\n                /* \"#utility.yul\":6683:6689   */\n              dup2\n                /* \"#utility.yul\":6678:6681   */\n              dup6\n                /* \"#utility.yul\":6619:6690   */\n              tag_133\n              jump\t// in\n            tag_236:\n                /* \"#utility.yul\":6612:6690   */\n              swap4\n              pop\n                /* \"#utility.yul\":6699:6751   */\n              tag_237\n                /* \"#utility.yul\":6744:6750   */\n              dup2\n                /* \"#utility.yul\":6739:6742   */\n              dup6\n                /* \"#utility.yul\":6732:6736   */\n              0x20\n                /* \"#utility.yul\":6725:6730   */\n              dup7\n                /* \"#utility.yul\":6721:6737   */\n              add\n                /* \"#utility.yul\":6699:6751   */\n              tag_134\n              jump\t// in\n            tag_237:\n                /* \"#utility.yul\":6776:6805   */\n              tag_238\n                /* \"#utility.yul\":6798:6804   */\n              dup2\n                /* \"#utility.yul\":6776:6805   */\n              tag_117\n              jump\t// in\n            tag_238:\n                /* \"#utility.yul\":6771:6774   */\n              dup5\n                /* \"#utility.yul\":6767:6806   */\n              add\n                /* \"#utility.yul\":6760:6806   */\n              swap2\n              pop\n                /* \"#utility.yul\":6540:6812   */\n              pop\n                /* \"#utility.yul\":6448:6812   */\n              swap3\n              swap2\n              pop\n              pop\n              jump\t// out\n                /* \"#utility.yul\":6818:6960   */\n            tag_136:\n                /* \"#utility.yul\":6921:6953   */\n              tag_240\n                /* \"#utility.yul\":6947:6952   */\n              dup2\n                /* \"#utility.yul\":6921:6953   */\n              tag_126\n              jump\t// in\n            tag_240:\n                /* \"#utility.yul\":6916:6919   */\n              dup3\n                /* \"#utility.yul\":6909:6954   */\n              mstore\n                /* \"#utility.yul\":6818:6960   */\n              pop\n              pop\n              jump\t// out\n                /* \"#utility.yul\":6966:7056   */\n            tag_137:\n                /* \"#utility.yul\":7000:7007   */\n              0x00\n                /* \"#utility.yul\":7043:7048   */\n              dup2\n                /* \"#utility.yul\":7036:7049   */\n              iszero\n                /* \"#utility.yul\":7029:7050   */\n              iszero\n                /* \"#utility.yul\":7018:7050   */\n              swap1\n              pop\n                /* \"#utility.yul\":6966:7056   */\n              swap2\n              swap1\n              pop\n              jump\t// out\n                /* \"#utility.yul\":7062:7171   */\n            tag_138:\n                /* \"#utility.yul\":7143:7164   */\n              tag_243\n                /* \"#utility.yul\":7158:7163   */\n              dup2\n                /* \"#utility.yul\":7143:7164   */\n              tag_137\n              jump\t// in\n            tag_243:\n                /* \"#utility.yul\":7138:7141   */\n              dup3\n                /* \"#utility.yul\":7131:7165   */\n              mstore\n                /* \"#utility.yul\":7062:7171   */\n              pop\n              pop\n              jump\t// out\n                /* \"#utility.yul\":7177:7952   */\n            tag_42:\n                /* \"#utility.yul\":7412:7416   */\n              0x00\n                /* \"#utility.yul\":7450:7453   */\n              0xa0\n                /* \"#utility.yul\":7439:7448   */\n              dup3\n                /* \"#utility.yul\":7435:7454   */\n              add\n                /* \"#utility.yul\":7427:7454   */\n              swap1\n              pop\n                /* \"#utility.yul\":7500:7509   */\n              dup2\n                /* \"#utility.yul\":7494:7498   */\n              dup2\n                /* \"#utility.yul\":7490:7510   */\n              sub\n                /* \"#utility.yul\":7486:7487   */\n              0x00\n                /* \"#utility.yul\":7475:7484   */\n              dup4\n                /* \"#utility.yul\":7471:7488   */\n              add\n                /* \"#utility.yul\":7464:7511   */\n              mstore\n                /* \"#utility.yul\":7528:7606   */\n              tag_245\n                /* \"#utility.yul\":7601:7605   */\n              dup2\n                /* \"#utility.yul\":7592:7598   */\n              dup9\n                /* \"#utility.yul\":7528:7606   */\n              tag_135\n              jump\t// in\n            tag_245:\n                /* \"#utility.yul\":7520:7606   */\n              swap1\n              pop\n                /* \"#utility.yul\":7616:7688   */\n              tag_246\n                /* \"#utility.yul\":7684:7686   */\n              0x20\n                /* \"#utility.yul\":7673:7682   */\n              dup4\n                /* \"#utility.yul\":7669:7687   */\n              add\n                /* \"#utility.yul\":7660:7666   */\n              dup8\n                /* \"#utility.yul\":7616:7688   */\n              tag_129\n              jump\t// in\n            tag_246:\n                /* \"#utility.yul\":7698:7786   */\n              tag_247\n                /* \"#utility.yul\":7782:7784   */\n              0x40\n                /* \"#utility.yul\":7771:7780   */\n              dup4\n                /* \"#utility.yul\":7767:7785   */\n              add\n                /* \"#utility.yul\":7758:7764   */\n              dup7\n                /* \"#utility.yul\":7698:7786   */\n              tag_136\n              jump\t// in\n            tag_247:\n                /* \"#utility.yul\":7796:7862   */\n              tag_248\n                /* \"#utility.yul\":7858:7860   */\n              0x60\n                /* \"#utility.yul\":7847:7856   */\n              dup4\n                /* \"#utility.yul\":7843:7861   */\n              add\n                /* \"#utility.yul\":7834:7840   */\n              dup6\n                /* \"#utility.yul\":7796:7862   */\n              tag_138\n              jump\t// in\n            tag_248:\n                /* \"#utility.yul\":7872:7945   */\n              tag_249\n                /* \"#utility.yul\":7940:7943   */\n              0x80\n                /* \"#utility.yul\":7929:7938   */\n              dup4\n                /* \"#utility.yul\":7925:7944   */\n              add\n                /* \"#utility.yul\":7916:7922   */\n              dup5\n                /* \"#utility.yul\":7872:7945   */\n              tag_129\n              jump\t// in\n            tag_249:\n                /* \"#utility.yul\":7177:7952   */\n              swap7\n              swap6\n              pop\n              pop\n              pop\n              pop\n              pop\n              pop\n              jump\t// out\n                /* \"#utility.yul\":7958:8180   */\n            tag_47:\n                /* \"#utility.yul\":8051:8055   */\n              0x00\n                /* \"#utility.yul\":8089:8091   */\n              0x20\n                /* \"#utility.yul\":8078:8087   */\n              dup3\n                /* \"#utility.yul\":8074:8092   */\n              add\n                /* \"#utility.yul\":8066:8092   */\n              swap1\n              pop\n                /* \"#utility.yul\":8102:8173   */\n              tag_251\n                /* \"#utility.yul\":8170:8171   */\n              0x00\n                /* \"#utility.yul\":8159:8168   */\n              dup4\n                /* \"#utility.yul\":8155:8172   */\n              add\n                /* \"#utility.yul\":8146:8152   */\n              dup5\n                /* \"#utility.yul\":8102:8173   */\n              tag_131\n              jump\t// in\n            tag_251:\n                /* \"#utility.yul\":7958:8180   */\n              swap3\n              swap2\n              pop\n              pop\n              jump\t// out\n                /* \"#utility.yul\":8186:8366   */\n            tag_67:\n                /* \"#utility.yul\":8234:8311   */\n              0x4e487b7100000000000000000000000000000000000000000000000000000000\n                /* \"#utility.yul\":8231:8232   */\n              0x00\n                /* \"#utility.yul\":8224:8312   */\n              mstore\n                /* \"#utility.yul\":8331:8335   */\n              0x32\n                /* \"#utility.yul\":8328:8329   */\n              0x04\n                /* \"#utility.yul\":8321:8336   */\n              mstore\n                /* \"#utility.yul\":8355:8359   */\n              0x24\n                /* \"#utility.yul\":8352:8353   */\n              0x00\n                /* \"#utility.yul\":8345:8360   */\n              revert\n                /* \"#utility.yul\":8372:8552   */\n            tag_139:\n                /* \"#utility.yul\":8420:8497   */\n              0x4e487b7100000000000000000000000000000000000000000000000000000000\n                /* \"#utility.yul\":8417:8418   */\n              0x00\n                /* \"#utility.yul\":8410:8498   */\n              mstore\n                /* \"#utility.yul\":8517:8521   */\n              0x12\n                /* \"#utility.yul\":8514:8515   */\n              0x04\n                /* \"#utility.yul\":8507:8522   */\n              mstore\n                /* \"#utility.yul\":8541:8545   */\n              0x24\n                /* \"#utility.yul\":8538:8539   */\n              0x00\n                /* \"#utility.yul\":8531:8546   */\n              revert\n                /* \"#utility.yul\":8558:8738   */\n            tag_140:\n                /* \"#utility.yul\":8606:8683   */\n              0x4e487b7100000000000000000000000000000000000000000000000000000000\n                /* \"#utility.yul\":8603:8604   */\n              0x00\n                /* \"#utility.yul\":8596:8684   */\n              mstore\n                /* \"#utility.yul\":8703:8707   */\n              0x11\n                /* \"#utility.yul\":8700:8701   */\n              0x04\n                /* \"#utility.yul\":8693:8708   */\n              mstore\n                /* \"#utility.yul\":8727:8731   */\n              0x24\n                /* \"#utility.yul\":8724:8725   */\n              0x00\n                /* \"#utility.yul\":8717:8732   */\n              revert\n                /* \"#utility.yul\":8744:8929   */\n            tag_74:\n                /* \"#utility.yul\":8784:8785   */\n              0x00\n                /* \"#utility.yul\":8801:8821   */\n              tag_256\n                /* \"#utility.yul\":8819:8820   */\n              dup3\n                /* \"#utility.yul\":8801:8821   */\n              tag_112\n              jump\t// in\n            tag_256:\n                /* \"#utility.yul\":8796:8821   */\n              swap2\n              pop\n                /* \"#utility.yul\":8835:8855   */\n              tag_257\n                /* \"#utility.yul\":8853:8854   */\n              dup4\n                /* \"#utility.yul\":8835:8855   */\n              tag_112\n              jump\t// in\n            tag_257:\n                /* \"#utility.yul\":8830:8855   */\n              swap3\n              pop\n                /* \"#utility.yul\":8874:8875   */\n              dup3\n                /* \"#utility.yul\":8864:8899   */\n              tag_258\n              jumpi\n                /* \"#utility.yul\":8879:8897   */\n              tag_259\n              tag_139\n              jump\t// in\n            tag_259:\n                /* \"#utility.yul\":8864:8899   */\n            tag_258:\n                /* \"#utility.yul\":8921:8922   */\n              dup3\n                /* \"#utility.yul\":8918:8919   */\n              dup3\n                /* \"#utility.yul\":8914:8923   */\n              div\n                /* \"#utility.yul\":8909:8923   */\n              swap1\n              pop\n                /* \"#utility.yul\":8744:8929   */\n              swap3\n              swap2\n              pop\n              pop\n              jump\t// out\n                /* \"#utility.yul\":8935:9115   */\n            tag_141:\n                /* \"#utility.yul\":8983:9060   */\n              0x4e487b7100000000000000000000000000000000000000000000000000000000\n                /* \"#utility.yul\":8980:8981   */\n              0x00\n                /* \"#utility.yul\":8973:9061   */\n              mstore\n                /* \"#utility.yul\":9080:9084   */\n              0x22\n                /* \"#utility.yul\":9077:9078   */\n              0x04\n                /* \"#utility.yul\":9070:9085   */\n              mstore\n                /* \"#utility.yul\":9104:9108   */\n              0x24\n                /* \"#utility.yul\":9101:9102   */\n              0x00\n                /* \"#utility.yul\":9094:9109   */\n              revert\n                /* \"#utility.yul\":9121:9441   */\n            tag_89:\n                /* \"#utility.yul\":9165:9171   */\n              0x00\n                /* \"#utility.yul\":9202:9203   */\n              0x02\n                /* \"#utility.yul\":9196:9200   */\n              dup3\n                /* \"#utility.yul\":9192:9204   */\n              div\n                /* \"#utility.yul\":9182:9204   */\n              swap1\n              pop\n                /* \"#utility.yul\":9249:9250   */\n              0x01\n                /* \"#utility.yul\":9243:9247   */\n              dup3\n                /* \"#utility.yul\":9239:9251   */\n              and\n                /* \"#utility.yul\":9270:9288   */\n              dup1\n                /* \"#utility.yul\":9260:9341   */\n              tag_262\n              jumpi\n                /* \"#utility.yul\":9326:9330   */\n              0x7f\n                /* \"#utility.yul\":9318:9324   */\n              dup3\n                /* \"#utility.yul\":9314:9331   */\n              and\n                /* \"#utility.yul\":9304:9331   */\n              swap2\n              pop\n                /* \"#utility.yul\":9260:9341   */\n            tag_262:\n                /* \"#utility.yul\":9388:9390   */\n              0x20\n                /* \"#utility.yul\":9380:9386   */\n              dup3\n                /* \"#utility.yul\":9377:9391   */\n              lt\n                /* \"#utility.yul\":9357:9375   */\n              dup2\n                /* \"#utility.yul\":9354:9392   */\n              sub\n                /* \"#utility.yul\":9351:9435   */\n              tag_263\n              jumpi\n                /* \"#utility.yul\":9407:9425   */\n              tag_264\n              tag_141\n              jump\t// in\n            tag_264:\n                /* \"#utility.yul\":9351:9435   */\n            tag_263:\n                /* \"#utility.yul\":9172:9441   */\n              pop\n                /* \"#utility.yul\":9121:9441   */\n              swap2\n              swap1\n              pop\n              jump\t// out\n                /* \"#utility.yul\":9447:9588   */\n            tag_142:\n                /* \"#utility.yul\":9496:9500   */\n              0x00\n                /* \"#utility.yul\":9519:9522   */\n              dup2\n                /* \"#utility.yul\":9511:9522   */\n              swap1\n              pop\n                /* \"#utility.yul\":9542:9545   */\n              dup2\n                /* \"#utility.yul\":9539:9540   */\n              0x00\n                /* \"#utility.yul\":9532:9546   */\n              mstore\n                /* \"#utility.yul\":9576:9580   */\n              0x20\n                /* \"#utility.yul\":9573:9574   */\n              0x00\n                /* \"#utility.yul\":9563:9581   */\n              keccak256\n                /* \"#utility.yul\":9555:9581   */\n              swap1\n              pop\n                /* \"#utility.yul\":9447:9588   */\n              swap2\n              swap1\n              pop\n              jump\t// out\n                /* \"#utility.yul\":9594:9687   */\n            tag_143:\n                /* \"#utility.yul\":9631:9637   */\n              0x00\n                /* \"#utility.yul\":9678:9680   */\n              0x20\n                /* \"#utility.yul\":9673:9675   */\n              0x1f\n                /* \"#utility.yul\":9666:9671   */\n              dup4\n                /* \"#utility.yul\":9662:9676   */\n              add\n                /* \"#utility.yul\":9658:9681   */\n              div\n                /* \"#utility.yul\":9648:9681   */\n              swap1\n              pop\n                /* \"#utility.yul\":9594:9687   */\n              swap2\n              swap1\n              pop\n              jump\t// out\n                /* \"#utility.yul\":9693:9800   */\n            tag_144:\n                /* \"#utility.yul\":9737:9745   */\n              0x00\n                /* \"#utility.yul\":9787:9792   */\n              dup3\n                /* \"#utility.yul\":9781:9785   */\n              dup3\n                /* \"#utility.yul\":9777:9793   */\n              shl\n                /* \"#utility.yul\":9756:9793   */\n              swap1\n              pop\n                /* \"#utility.yul\":9693:9800   */\n              swap3\n              swap2\n              pop\n              pop\n              jump\t// out\n                /* \"#utility.yul\":9806:10199   */\n            tag_145:\n                /* \"#utility.yul\":9875:9881   */\n              0x00\n                /* \"#utility.yul\":9925:9926   */\n              0x08\n                /* \"#utility.yul\":9913:9923   */\n              dup4\n                /* \"#utility.yul\":9909:9927   */\n              mul\n                /* \"#utility.yul\":9948:10045   */\n              tag_269\n                /* \"#utility.yul\":9978:10044   */\n              0xffffffffffffffffffffffffffffffffffffffffffffffffffffffffffffffff\n                /* \"#utility.yul\":9967:9976   */\n              dup3\n                /* \"#utility.yul\":9948:10045   */\n              tag_144\n              jump\t// in\n            tag_269:\n                /* \"#utility.yul\":10066:10105   */\n              tag_270\n                /* \"#utility.yul\":10096:10104   */\n              dup7\n                /* \"#utility.yul\":10085:10094   */\n              dup4\n                /* \"#utility.yul\":10066:10105   */\n              tag_144\n              jump\t// in\n            tag_270:\n                /* \"#utility.yul\":10054:10105   */\n              swap6\n              pop\n                /* \"#utility.yul\":10138:10142   */\n              dup1\n                /* \"#utility.yul\":10134:10143   */\n              not\n                /* \"#utility.yul\":10127:10132   */\n              dup5\n                /* \"#utility.yul\":10123:10144   */\n              and\n                /* \"#utility.yul\":10114:10144   */\n              swap4\n              pop\n                /* \"#utility.yul\":10187:10191   */\n              dup1\n                /* \"#utility.yul\":10177:10185   */\n              dup7\n                /* \"#utility.yul\":10173:10192   */\n              and\n                /* \"#utility.yul\":10166:10171   */\n              dup5\n                /* \"#utility.yul\":10163:10193   */\n              or\n                /* \"#utility.yul\":10153:10193   */\n              swap3\n              pop\n                /* \"#utility.yul\":9882:10199   */\n              pop\n              pop\n                /* \"#utility.yul\":9806:10199   */\n              swap4\n              swap3\n              pop\n              pop\n              pop\n              jump\t// out\n                /* \"#utility.yul\":10205:10265   */\n            tag_146:\n                /* \"#utility.yul\":10233:10236   */\n              0x00\n                /* \"#utility.yul\":10254:10259   */\n              dup2\n                /* \"#utility.yul\":10247:10259   */\n              swap1\n              pop\n                /* \"#utility.yul\":10205:10265   */\n              swap2\n              swap1\n              pop\n              jump\t// out\n                /* \"#utility.yul\":10271:10413   */\n            tag_147:\n                /* \"#utility.yul\":10321:10330   */\n              0x00\n                /* \"#utility.yul\":10354:10407   */\n              tag_273\n                /* \"#utility.yul\":10372:10406   */\n              tag_274\n                /* \"#utility.yul\":10381:10405   */\n              tag_275\n                /* \"#utility.yul\":10399:10404   */\n              dup5\n                /* \"#utility.yul\":10381:10405   */\n              tag_112\n              jump\t// in\n            tag_275:\n                /* \"#utility.yul\":10372:10406   */\n              tag_146\n              jump\t// in\n            tag_274:\n                /* \"#utility.yul\":10354:10407   */\n              tag_112\n              jump\t// in\n            tag_273:\n                /* \"#utility.yul\":10341:10407   */\n              swap1\n              pop\n                /* \"#utility.yul\":10271:10413   */\n              swap2\n              swap1\n              pop\n              jump\t// out\n                /* \"#utility.yul\":10419:10494   */\n            tag_148:\n                /* \"#utility.yul\":10462:10465   */\n              0x00\n                /* \"#utility.yul\":10483:10488   */\n              dup2\n                /* \"#utility.yul\":10476:10488   */\n              swap1\n              pop\n                /* \"#utility.yul\":10419:10494   */\n              swap2\n              swap1\n              pop\n              jump\t// out\n                /* \"#utility.yul\":10500:10769   */\n            tag_149:\n                /* \"#utility.yul\":10610:10649   */\n              tag_278\n                /* \"#utility.yul\":10641:10648   */\n              dup4\n                /* \"#utility.yul\":10610:10649   */\n              tag_147\n              jump\t// in\n            tag_278:\n                /* \"#utility.yul\":10671:10762   */\n              tag_279\n                /* \"#utility.yul\":10720:10761   */\n              tag_280\n                /* \"#utility.yul\":10744:10760   */\n              dup3\n                /* \"#utility.yul\":10720:10761   */\n              tag_148\n              jump\t// in\n            tag_280:\n                /* \"#utility.yul\":10712:10718   */\n              dup5\n                /* \"#utility.yul\":10705:10709   */\n              dup5\n                /* \"#utility.yul\":10699:10710   */\n              sload\n                /* \"#utility.yul\":10671:10762   */\n              tag_145\n              jump\t// in\n            tag_279:\n                /* \"#utility.yul\":10665:10669   */\n              dup3\n                /* \"#utility.yul\":10658:10763   */\n              sstore\n                /* \"#utility.yul\":10576:10769   */\n              pop\n                /* \"#utility.yul\":10500:10769   */\n              pop\n              pop\n              pop\n              jump\t// out\n                /* \"#utility.yul\":10775:10848   */\n            tag_150:\n                /* \"#utility.yul\":10820:10823   */\n              0x00\n                /* \"#utility.yul\":10775:10848   */\n              swap1\n              jump\t// out\n                /* \"#utility.yul\":10854:11043   */\n            tag_151:\n                /* \"#utility.yul\":10931:10963   */\n              tag_283\n              tag_150\n              jump\t// in\n            tag_283:\n                /* \"#utility.yul\":10972:11037   */\n              tag_284\n                /* \"#utility.yul\":11030:11036   */\n              dup2\n                /* \"#utility.yul\":11022:11028   */\n              dup5\n                /* \"#utility.yul\":11016:11020   */\n              dup5\n                /* \"#utility.yul\":10972:11037   */\n              tag_149\n              jump\t// in\n            tag_284:\n                /* \"#utility.yul\":10907:11043   */\n              pop\n                /* \"#utility.yul\":10854:11043   */\n              pop\n              pop\n              jump\t// out\n                /* \"#utility.yul\":11049:11235   */\n            tag_152:\n                /* \"#utility.yul\":11109:11229   */\n            tag_286:\n                /* \"#utility.yul\":11126:11129   */\n              dup2\n                /* \"#utility.yul\":11119:11124   */\n              dup2\n                /* \"#utility.yul\":11116:11130   */\n              lt\n                /* \"#utility.yul\":11109:11229   */\n              iszero\n              tag_288\n              jumpi\n                /* \"#utility.yul\":11180:11219   */\n              tag_289\n                /* \"#utility.yul\":11217:11218   */\n              0x00\n                /* \"#utility.yul\":11210:11215   */\n              dup3\n                /* \"#utility.yul\":11180:11219   */\n              tag_151\n              jump\t// in\n            tag_289:\n                /* \"#utility.yul\":11153:11154   */\n              0x01\n                /* \"#utility.yul\":11146:11151   */\n              dup2\n                /* \"#utility.yul\":11142:11155   */\n              add\n                /* \"#utility.yul\":11133:11155   */\n              swap1\n              pop\n                /* \"#utility.yul\":11109:11229   */\n              jump(tag_286)\n            tag_288:\n                /* \"#utility.yul\":11049:11235   */\n              pop\n              pop\n              jump\t// out\n                /* \"#utility.yul\":11241:11784   */\n            tag_153:\n                /* \"#utility.yul\":11342:11344   */\n              0x1f\n                /* \"#utility.yul\":11337:11340   */\n              dup3\n                /* \"#utility.yul\":11334:11345   */\n              gt\n                /* \"#utility.yul\":11331:11777   */\n              iszero\n              tag_291\n              jumpi\n                /* \"#utility.yul\":11376:11414   */\n              tag_292\n                /* \"#utility.yul\":11408:11413   */\n              dup2\n                /* \"#utility.yul\":11376:11414   */\n              tag_142\n              jump\t// in\n            tag_292:\n                /* \"#utility.yul\":11460:11489   */\n              tag_293\n                /* \"#utility.yul\":11478:11488   */\n              dup5\n                /* \"#utility.yul\":11460:11489   */\n              tag_143\n              jump\t// in\n            tag_293:\n                /* \"#utility.yul\":11450:11458   */\n              dup2\n                /* \"#utility.yul\":11446:11490   */\n              add\n                /* \"#utility.yul\":11643:11645   */\n              0x20\n                /* \"#utility.yul\":11631:11641   */\n              dup6\n                /* \"#utility.yul\":11628:11646   */\n              lt\n                /* \"#utility.yul\":11625:11674   */\n              iszero\n              tag_294\n              jumpi\n                /* \"#utility.yul\":11664:11672   */\n              dup2\n                /* \"#utility.yul\":11649:11672   */\n              swap1\n              pop\n                /* \"#utility.yul\":11625:11674   */\n            tag_294:\n                /* \"#utility.yul\":11687:11767   */\n              tag_295\n                /* \"#utility.yul\":11743:11765   */\n              tag_296\n                /* \"#utility.yul\":11761:11764   */\n              dup6\n                /* \"#utility.yul\":11743:11765   */\n              tag_143\n              jump\t// in\n            tag_296:\n                /* \"#utility.yul\":11733:11741   */\n              dup4\n                /* \"#utility.yul\":11729:11766   */\n              add\n                /* \"#utility.yul\":11716:11727   */\n              dup3\n                /* \"#utility.yul\":11687:11767   */\n              tag_152\n              jump\t// in\n            tag_295:\n                /* \"#utility.yul\":11346:11777   */\n              pop\n              pop\n                /* \"#utility.yul\":11331:11777   */\n            tag_291:\n                /* \"#utility.yul\":11241:11784   */\n              pop\n              pop\n              pop\n              jump\t// out\n                /* \"#utility.yul\":11790:11907   */\n            tag_154:\n                /* \"#utility.yul\":11844:11852   */\n              0x00\n                /* \"#utility.yul\":11894:11899   */\n              dup3\n                /* \"#utility.yul\":11888:11892   */\n              dup3\n                /* \"#utility.yul\":11884:11900   */\n              shr\n                /* \"#utility.yul\":11863:11900   */\n              swap1\n              pop\n                /* \"#utility.yul\":11790:11907   */\n              swap3\n              swap2\n              pop\n              pop\n              jump\t// out\n                /* \"#utility.yul\":11913:12082   */\n            tag_155:\n                /* \"#utility.yul\":11957:11963   */\n              0x00\n                /* \"#utility.yul\":11990:12041   */\n              tag_299\n                /* \"#utility.yul\":12038:12039   */\n              0x00\n                /* \"#utility.yul\":12034:12040   */\n              not\n                /* \"#utility.yul\":12026:12031   */\n              dup5\n                /* \"#utility.yul\":12023:12024   */\n              0x08\n                /* \"#utility.yul\":12019:12032   */\n              mul\n                /* \"#utility.yul\":11990:12041   */\n              tag_154\n              jump\t// in\n            tag_299:\n                /* \"#utility.yul\":11986:12042   */\n              not\n                /* \"#utility.yul\":12071:12075   */\n              dup1\n                /* \"#utility.yul\":12065:12069   */\n              dup4\n                /* \"#utility.yul\":12061:12076   */\n              and\n                /* \"#utility.yul\":12051:12076   */\n              swap2\n              pop\n                /* \"#utility.yul\":11964:12082   */\n              pop\n                /* \"#utility.yul\":11913:12082   */\n              swap3\n              swap2\n              pop\n              pop\n              jump\t// out\n                /* \"#utility.yul\":12087:12382   */\n            tag_156:\n                /* \"#utility.yul\":12163:12167   */\n              0x00\n                /* \"#utility.yul\":12309:12338   */\n              tag_301\n                /* \"#utility.yul\":12334:12337   */\n              dup4\n                /* \"#utility.yul\":12328:12332   */\n              dup4\n                /* \"#utility.yul\":12309:12338   */\n              tag_155\n              jump\t// in\n            tag_301:\n                /* \"#utility.yul\":12301:12338   */\n              swap2\n              pop\n                /* \"#utility.yul\":12371:12374   */\n              dup3\n                /* \"#utility.yul\":12368:12369   */\n              0x02\n                /* \"#utility.yul\":12364:12375   */\n              mul\n                /* \"#utility.yul\":12358:12362   */\n              dup3\n                /* \"#utility.yul\":12355:12376   */\n              or\n                /* \"#utility.yul\":12347:12376   */\n              swap1\n              pop\n                /* \"#utility.yul\":12087:12382   */\n              swap3\n              swap2\n              pop\n              pop\n              jump\t// out\n                /* \"#utility.yul\":12387:13782   */\n            tag_83:\n                /* \"#utility.yul\":12504:12541   */\n              tag_303\n                /* \"#utility.yul\":12537:12540   */\n              dup3\n                /* \"#utility.yul\":12504:12541   */\n              tag_132\n              jump\t// in\n            tag_303:\n                /* \"#utility.yul\":12606:12624   */\n              0xffffffffffffffff\n                /* \"#utility.yul\":12598:12604   */\n              dup2\n                /* \"#utility.yul\":12595:12625   */\n              gt\n                /* \"#utility.yul\":12592:12648   */\n              iszero\n              tag_304\n              jumpi\n                /* \"#utility.yul\":12628:12646   */\n              tag_305\n              tag_118\n              jump\t// in\n            tag_305:\n                /* \"#utility.yul\":12592:12648   */\n            tag_304:\n                /* \"#utility.yul\":12672:12710   */\n              tag_306\n                /* \"#utility.yul\":12704:12708   */\n              dup3\n                /* \"#utility.yul\":12698:12709   */\n              sload\n                /* \"#utility.yul\":12672:12710   */\n              tag_89\n              jump\t// in\n            tag_306:\n                /* \"#utility.yul\":12757:12824   */\n              tag_307\n                /* \"#utility.yul\":12817:12823   */\n              dup3\n                /* \"#utility.yul\":12809:12815   */\n              dup3\n                /* \"#utility.yul\":12803:12807   */\n              dup6\n                /* \"#utility.yul\":12757:12824   */\n              tag_153\n              jump\t// in\n            tag_307:\n                /* \"#utility.yul\":12851:12852   */\n              0x00\n                /* \"#utility.yul\":12875:12879   */\n              0x20\n                /* \"#utility.yul\":12862:12879   */\n              swap1\n              pop\n                /* \"#utility.yul\":12907:12909   */\n              0x1f\n                /* \"#utility.yul\":12899:12905   */\n              dup4\n                /* \"#utility.yul\":12896:12910   */\n              gt\n                /* \"#utility.yul\":12924:12925   */\n              0x01\n                /* \"#utility.yul\":12919:13537   */\n              dup2\n              eq\n              tag_309\n              jumpi\n                /* \"#utility.yul\":13581:13582   */\n              0x00\n                /* \"#utility.yul\":13598:13604   */\n              dup5\n                /* \"#utility.yul\":13595:13672   */\n              iszero\n              tag_310\n              jumpi\n                /* \"#utility.yul\":13647:13656   */\n              dup3\n                /* \"#utility.yul\":13642:13645   */\n              dup8\n                /* \"#utility.yul\":13638:13657   */\n              add\n                /* \"#utility.yul\":13632:13658   */\n              mload\n                /* \"#utility.yul\":13623:13658   */\n              swap1\n              pop\n                /* \"#utility.yul\":13595:13672   */\n            tag_310:\n                /* \"#utility.yul\":13698:13765   */\n              tag_311\n                /* \"#utility.yul\":13758:13764   */\n              dup6\n                /* \"#utility.yul\":13751:13756   */\n              dup3\n                /* \"#utility.yul\":13698:13765   */\n              tag_156\n              jump\t// in\n            tag_311:\n                /* \"#utility.yul\":13692:13696   */\n              dup7\n                /* \"#utility.yul\":13685:13766   */\n              sstore\n                /* \"#utility.yul\":13554:13776   */\n              pop\n                /* \"#utility.yul\":12889:13776   */\n              jump(tag_308)\n                /* \"#utility.yul\":12919:13537   */\n            tag_309:\n                /* \"#utility.yul\":12971:12975   */\n              0x1f\n                /* \"#utility.yul\":12967:12976   */\n              not\n                /* \"#utility.yul\":12959:12965   */\n              dup5\n                /* \"#utility.yul\":12955:12977   */\n              and\n                /* \"#utility.yul\":13005:13042   */\n              tag_312\n                /* \"#utility.yul\":13037:13041   */\n              dup7\n                /* \"#utility.yul\":13005:13042   */\n              tag_142\n              jump\t// in\n            tag_312:\n                /* \"#utility.yul\":13064:13065   */\n              0x00\n                /* \"#utility.yul\":13078:13286   */\n            tag_313:\n                /* \"#utility.yul\":13092:13099   */\n              dup3\n                /* \"#utility.yul\":13089:13090   */\n              dup2\n                /* \"#utility.yul\":13086:13100   */\n              lt\n                /* \"#utility.yul\":13078:13286   */\n              iszero\n              tag_315\n              jumpi\n                /* \"#utility.yul\":13171:13180   */\n              dup5\n                /* \"#utility.yul\":13166:13169   */\n              dup10\n                /* \"#utility.yul\":13162:13181   */\n              add\n                /* \"#utility.yul\":13156:13182   */\n              mload\n                /* \"#utility.yul\":13148:13154   */\n              dup3\n                /* \"#utility.yul\":13141:13183   */\n              sstore\n                /* \"#utility.yul\":13222:13223   */\n              0x01\n                /* \"#utility.yul\":13214:13220   */\n              dup3\n                /* \"#utility.yul\":13210:13224   */\n              add\n                /* \"#utility.yul\":13200:13224   */\n              swap2\n              pop\n                /* \"#utility.yul\":13269:13271   */\n              0x20\n                /* \"#utility.yul\":13258:13267   */\n              dup6\n                /* \"#utility.yul\":13254:13272   */\n              add\n                /* \"#utility.yul\":13241:13272   */\n              swap5\n              pop\n                /* \"#utility.yul\":13115:13119   */\n              0x20\n                /* \"#utility.yul\":13112:13113   */\n              dup2\n                /* \"#utility.yul\":13108:13120   */\n              add\n                /* \"#utility.yul\":13103:13120   */\n              swap1\n              pop\n                /* \"#utility.yul\":13078:13286   */\n              jump(tag_313)\n            tag_315:\n                /* \"#utility.yul\":13314:13320   */\n              dup7\n                /* \"#utility.yul\":13305:13312   */\n              dup4\n                /* \"#utility.yul\":13302:13321   */\n              lt\n                /* \"#utility.yul\":13299:13478   */\n              iszero\n              tag_316\n              jumpi\n                /* \"#utility.yul\":13372:13381   */\n              dup5\n                /* \"#utility.yul\":13367:13370   */\n              dup10\n                /* \"#utility.yul\":13363:13382   */\n              add\n                /* \"#utility.yul\":13357:13383   */\n              mload\n                /* \"#utility.yul\":13415:13463   */\n              tag_317\n                /* \"#utility.yul\":13457:13461   */\n              0x1f\n                /* \"#utility.yul\":13449:13455   */\n              dup10\n                /* \"#utility.yul\":13445:13462   */\n              and\n                /* \"#utility.yul\":13434:13443   */\n              dup3\n                /* \"#utility.yul\":13415:13463   */\n              tag_155\n              jump\t// in\n            tag_317:\n                /* \"#utility.yul\":13407:13413   */\n              dup4\n                /* \"#utility.yul\":13400:13464   */\n              sstore\n                /* \"#utility.yul\":13322:13478   */\n              pop\n                /* \"#utility.yul\":13299:13478   */\n            tag_316:\n                /* \"#utility.yul\":13524:13525   */\n              0x01\n                /* \"#utility.yul\":13520:13521   */\n              0x02\n                /* \"#utility.yul\":13512:13518   */\n              dup9\n                /* \"#utility.yul\":13508:13522   */\n              mul\n                /* \"#utility.yul\":13504:13526   */\n              add\n                /* \"#utility.yul\":13498:13502   */\n              dup9\n                /* \"#utility.yul\":13491:13527   */\n              sstore\n                /* \"#utility.yul\":12926:13537   */\n              pop\n              pop\n              pop\n                /* \"#utility.yul\":12889:13776   */\n            tag_308:\n              pop\n                /* \"#utility.yul\":12479:13782   */\n              pop\n              pop\n              pop\n                /* \"#utility.yul\":12387:13782   */\n              pop\n              pop\n              jump\t// out\n                /* \"#utility.yul\":13788:14021   */\n            tag_98:\n                /* \"#utility.yul\":13827:13830   */\n              0x00\n                /* \"#utility.yul\":13850:13874   */\n              tag_319\n                /* \"#utility.yul\":13868:13873   */\n              dup3\n                /* \"#utility.yul\":13850:13874   */\n              tag_112\n              jump\t// in\n            tag_319:\n                /* \"#utility.yul\":13841:13874   */\n              swap2\n              pop\n                /* \"#utility.yul\":13896:13962   */\n              0xffffffffffffffffffffffffffffffffffffffffffffffffffffffffffffffff\n                /* \"#utility.yul\":13889:13894   */\n              dup3\n                /* \"#utility.yul\":13886:13963   */\n              sub\n                /* \"#utility.yul\":13883:13986   */\n              tag_320\n              jumpi\n                /* \"#utility.yul\":13966:13984   */\n              tag_321\n              tag_140\n              jump\t// in\n            tag_321:\n                /* \"#utility.yul\":13883:13986   */\n            tag_320:\n                /* \"#utility.yul\":14013:14014   */\n              0x01\n                /* \"#utility.yul\":14006:14011   */\n              dup3\n                /* \"#utility.yul\":14002:14015   */\n              add\n                /* \"#utility.yul\":13995:14015   */\n              swap1\n              pop\n                /* \"#utility.yul\":13788:14021   */\n              swap2\n              swap1\n              pop\n              jump\t// out\n\n            auxdata: 0xa2646970667358221220fc99159eecd377aecc179f5547ff8551ae581a780a103d05db09c9f68e4ed56d64736f6c634300080f0033\n        }\n    }\n\n    auxdata: 0xa26469706673582212206349b02e03263c044d4ff2f7c84d3b58373d5792bef8ab366eccf40b0c63d49064736f6c634300080f0033\n}\n","bytecode":{"linkReferences":{},"object":"608060405234801561001057600080fd5b506115d7806100206000396000f3fe608060405234801561001057600080fd5b50600436106100365760003560e01c806360f796a11461003b5780639e36b71d14610057575b600080fd5b610055600480360381019061005091906101ec565b610075565b005b61005f610116565b60405161006c9190610309565b60405180910390f35b60008133604051610085906101a4565b610090929190610349565b604051809103906000f0801580156100ac573d6000803e3d6000fd5b5090506000819080600181540180825580915050600190039060005260206000200160009091909190916101000a81548173ffffffffffffffffffffffffffffffffffffffff021916908373ffffffffffffffffffffffffffffffffffffffff1602179055505050565b6060600080548060200260200160405190810160405280929190818152602001828054801561019a57602002820191906000526020600020905b8160009054906101000a900473ffffffffffffffffffffffffffffffffffffffff1673ffffffffffffffffffffffffffffffffffffffff1681526020019060010190808311610150575b5050505050905090565b61122f8061037383390190565b600080fd5b6000819050919050565b6101c9816101b6565b81146101d457600080fd5b50565b6000813590506101e6816101c0565b92915050565b600060208284031215610202576102016101b1565b5b6000610210848285016101d7565b91505092915050565b600081519050919050565b600082825260208201905092915050565b6000819050602082019050919050565b600073ffffffffffffffffffffffffffffffffffffffff82169050919050565b600061027082610245565b9050919050565b61028081610265565b82525050565b60006102928383610277565b60208301905092915050565b6000602082019050919050565b60006102b682610219565b6102c08185610224565b93506102cb83610235565b8060005b838110156102fc5781516102e38882610286565b97506102ee8361029e565b9250506001810190506102cf565b5085935050505092915050565b6000602082019050818103600083015261032381846102ab565b905092915050565b610334816101b6565b82525050565b61034381610265565b82525050565b600060408201905061035e600083018561032b565b61036b602083018461033a565b939250505056fe60806040523480156200001157600080fd5b506040516200122f3803806200122f83398181016040528101906200003791906200012b565b806000806101000a81548173ffffffffffffffffffffffffffffffffffffffff021916908373ffffffffffffffffffffffffffffffffffffffff16021790555081600281905550505062000172565b600080fd5b6000819050919050565b620000a0816200008b565b8114620000ac57600080fd5b50565b600081519050620000c08162000095565b92915050565b600073ffffffffffffffffffffffffffffffffffffffff82169050919050565b6000620000f382620000c6565b9050919050565b6200010581620000e6565b81146200011157600080fd5b50565b6000815190506200012581620000fa565b92915050565b6000806040838503121562000145576200014462000086565b5b60006200015585828601620000af565b9250506020620001688582860162000114565b9150509250929050565b6110ad80620001826000396000f3fe60806040526004361061009c5760003560e01c806381d12c581161006457806381d12c581461016b5780638da5cb5b146101ac578063bb0c8298146101d7578063c2bb515f14610202578063d7bb99ba1461022d578063d7d1bbdb146102375761009c565b806303441006146100a15780630bfd66c9146100bd5780633a1c30ac146100e65780633ff1e05b146101155780634fc3dba614610140575b600080fd5b6100bb60048036038101906100b6919061088e565b610260565b005b3480156100c957600080fd5b506100e460048036038101906100df9190610a5f565b6103c9565b005b3480156100f257600080fd5b506100fb6104d0565b60405161010c959493929190610afe565b60405180910390f35b34801561012157600080fd5b5061012a610517565b6040516101379190610b51565b60405180910390f35b34801561014c57600080fd5b5061015561051f565b6040516101629190610b51565b60405180910390f35b34801561017757600080fd5b50610192600480360381019061018d919061088e565b610525565b6040516101a3959493929190610c1e565b60405180910390f35b3480156101b857600080fd5b506101c1610620565b6040516101ce9190610c78565b60405180910390f35b3480156101e357600080fd5b506101ec610644565b6040516101f99190610b51565b60405180910390f35b34801561020e57600080fd5b5061021761064a565b6040516102249190610b51565b60405180910390f35b610235610657565b005b34801561024357600080fd5b5061025e6004803603810190610259919061088e565b6106d6565b005b60008054906101000a900473ffffffffffffffffffffffffffffffffffffffff1673ffffffffffffffffffffffffffffffffffffffff163373ffffffffffffffffffffffffffffffffffffffff16146102b857600080fd5b600381815481106102cc576102cb610c93565b5b906000526020600020906005020160020160149054906101000a900460ff16156102f557600080fd5b60006003828154811061030b5761030a610c93565b5b90600052602060002090600502019050600260045461032a9190610d20565b81600301541161033957600080fd5b8060020160009054906101000a900473ffffffffffffffffffffffffffffffffffffffff1673ffffffffffffffffffffffffffffffffffffffff166108fc82600101549081150290604051600060405180830381858888f193505050501580156103a7573d6000803e3d6000fd5b5060018160020160146101000a81548160ff0219169083151502179055505050565b60008054906101000a900473ffffffffffffffffffffffffffffffffffffffff1673ffffffffffffffffffffffffffffffffffffffff163373ffffffffffffffffffffffffffffffffffffffff161461042157600080fd5b600060036001816001815401808255809150500390600052602060002090600502019050838160000190816104569190610f5d565b50828160010181905550818160020160006101000a81548173ffffffffffffffffffffffffffffffffffffffff021916908373ffffffffffffffffffffffffffffffffffffffff16021790555060008160020160146101000a81548160ff0219169083151502179055506000816003018190555050505050565b600080600080600060025460045460038054905060008054906101000a900473ffffffffffffffffffffffffffffffffffffffff1647945094509450945094509091929394565b600047905090565b60045481565b6003818154811061053557600080fd5b906000526020600020906005020160009150905080600001805461055890610d80565b80601f016020809104026020016040519081016040528092919081815260200182805461058490610d80565b80156105d15780601f106105a6576101008083540402835291602001916105d1565b820191906000526020600020905b8154815290600101906020018083116105b457829003601f168201915b5050505050908060010154908060020160009054906101000a900473ffffffffffffffffffffffffffffffffffffffff16908060020160149054906101000a900460ff16908060030154905085565b60008054906101000a900473ffffffffffffffffffffffffffffffffffffffff1681565b60025481565b6000600380549050905090565b600254341161066557600080fd5b60018060003373ffffffffffffffffffffffffffffffffffffffff1673ffffffffffffffffffffffffffffffffffffffff16815260200190815260200160002060006101000a81548160ff021916908315150217905550600460008154809291906106cf9061102f565b9190505550565b600160003373ffffffffffffffffffffffffffffffffffffffff1673ffffffffffffffffffffffffffffffffffffffff16815260200190815260200160002060009054906101000a900460ff1661072c57600080fd5b600381815481106107405761073f610c93565b5b906000526020600020906005020160040160003373ffffffffffffffffffffffffffffffffffffffff1673ffffffffffffffffffffffffffffffffffffffff16815260200190815260200160002060009054906101000a900460ff16156107a657600080fd5b6000600382815481106107bc576107bb610c93565b5b906000526020600020906005020190508060030160008154809291906107e19061102f565b919050555060018160040160003373ffffffffffffffffffffffffffffffffffffffff1673ffffffffffffffffffffffffffffffffffffffff16815260200190815260200160002060006101000a81548160ff0219169083151502179055505050565b6000604051905090565b600080fd5b600080fd5b6000819050919050565b61086b81610858565b811461087657600080fd5b50565b60008135905061088881610862565b92915050565b6000602082840312156108a4576108a361084e565b5b60006108b284828501610879565b91505092915050565b600080fd5b600080fd5b6000601f19601f8301169050919050565b7f4e487b7100000000000000000000000000000000000000000000000000000000600052604160045260246000fd5b61090e826108c5565b810181811067ffffffffffffffff8211171561092d5761092c6108d6565b5b80604052505050565b6000610940610844565b905061094c8282610905565b919050565b600067ffffffffffffffff82111561096c5761096b6108d6565b5b610975826108c5565b9050602081019050919050565b82818337600083830152505050565b60006109a461099f84610951565b610936565b9050828152602081018484840111156109c0576109bf6108c0565b5b6109cb848285610982565b509392505050565b600082601f8301126109e8576109e76108bb565b5b81356109f8848260208601610991565b91505092915050565b600073ffffffffffffffffffffffffffffffffffffffff82169050919050565b6000610a2c82610a01565b9050919050565b610a3c81610a21565b8114610a4757600080fd5b50565b600081359050610a5981610a33565b92915050565b600080600060608486031215610a7857610a7761084e565b5b600084013567ffffffffffffffff811115610a9657610a95610853565b5b610aa2868287016109d3565b9350506020610ab386828701610879565b9250506040610ac486828701610a4a565b9150509250925092565b610ad781610858565b82525050565b6000610ae882610a01565b9050919050565b610af881610add565b82525050565b600060a082019050610b136000830188610ace565b610b206020830187610ace565b610b2d6040830186610ace565b610b3a6060830185610aef565b610b476080830184610ace565b9695505050505050565b6000602082019050610b666000830184610ace565b92915050565b600081519050919050565b600082825260208201905092915050565b60005b83811015610ba6578082015181840152602081019050610b8b565b83811115610bb5576000848401525b50505050565b6000610bc682610b6c565b610bd08185610b77565b9350610be0818560208601610b88565b610be9816108c5565b840191505092915050565b610bfd81610a21565b82525050565b60008115159050919050565b610c1881610c03565b82525050565b600060a0820190508181036000830152610c388188610bbb565b9050610c476020830187610ace565b610c546040830186610bf4565b610c616060830185610c0f565b610c6e6080830184610ace565b9695505050505050565b6000602082019050610c8d6000830184610aef565b92915050565b7f4e487b7100000000000000000000000000000000000000000000000000000000600052603260045260246000fd5b7f4e487b7100000000000000000000000000000000000000000000000000000000600052601260045260246000fd5b7f4e487b7100000000000000000000000000000000000000000000000000000000600052601160045260246000fd5b6000610d2b82610858565b9150610d3683610858565b925082610d4657610d45610cc2565b5b828204905092915050565b7f4e487b7100000000000000000000000000000000000000000000000000000000600052602260045260246000fd5b60006002820490506001821680610d9857607f821691505b602082108103610dab57610daa610d51565b5b50919050565b60008190508160005260206000209050919050565b60006020601f8301049050919050565b600082821b905092915050565b600060088302610e137fffffffffffffffffffffffffffffffffffffffffffffffffffffffffffffffff82610dd6565b610e1d8683610dd6565b95508019841693508086168417925050509392505050565b6000819050919050565b6000610e5a610e55610e5084610858565b610e35565b610858565b9050919050565b6000819050919050565b610e7483610e3f565b610e88610e8082610e61565b848454610de3565b825550505050565b600090565b610e9d610e90565b610ea8818484610e6b565b505050565b5b81811015610ecc57610ec1600082610e95565b600181019050610eae565b5050565b601f821115610f1157610ee281610db1565b610eeb84610dc6565b81016020851015610efa578190505b610f0e610f0685610dc6565b830182610ead565b50505b505050565b600082821c905092915050565b6000610f3460001984600802610f16565b1980831691505092915050565b6000610f4d8383610f23565b9150826002028217905092915050565b610f6682610b6c565b67ffffffffffffffff811115610f7f57610f7e6108d6565b5b610f898254610d80565b610f94828285610ed0565b600060209050601f831160018114610fc75760008415610fb5578287015190505b610fbf8582610f41565b865550611027565b601f198416610fd586610db1565b60005b82811015610ffd57848901518255600182019150602085019450602081019050610fd8565b8683101561101a5784890151611016601f891682610f23565b8355505b6001600288020188555050505b505050505050565b600061103a82610858565b91507fffffffffffffffffffffffffffffffffffffffffffffffffffffffffffffffff820361106c5761106b610cf1565b5b60018201905091905056fea2646970667358221220fc99159eecd377aecc179f5547ff8551ae581a780a103d05db09c9f68e4ed56d64736f6c634300080f0033a26469706673582212206349b02e03263c044d4ff2f7c84d3b58373d5792bef8ab366eccf40b0c63d49064736f6c634300080f0033","opcodes":"PUSH1 0x80 PUSH1 0x40 MSTORE CALLVALUE DUP1 ISZERO PUSH2 0x10 JUMPI PUSH1 0x0 DUP1 REVERT JUMPDEST POP PUSH2 0x15D7 DUP1 PUSH2 0x20 PUSH1 0x0 CODECOPY PUSH1 0x0 RETURN INVALID PUSH1 0x80 PUSH1 0x40 MSTORE CALLVALUE DUP1 ISZERO PUSH2 0x10 JUMPI PUSH1 0x0 DUP1 REVERT JUMPDEST POP PUSH1 0x4 CALLDATASIZE LT PUSH2 0x36 JUMPI PUSH1 0x0 CALLDATALOAD PUSH1 0xE0 SHR DUP1 PUSH4 0x60F796A1 EQ PUSH2 0x3B JUMPI DUP1 PUSH4 0x9E36B71D EQ PUSH2 0x57 JUMPI JUMPDEST PUSH1 0x0 DUP1 REVERT JUMPDEST PUSH2 0x55 PUSH1 0x4 DUP1 CALLDATASIZE SUB DUP2 ADD SWAP1 PUSH2 0x50 SWAP2 SWAP1 PUSH2 0x1EC JUMP JUMPDEST PUSH2 0x75 JUMP JUMPDEST STOP JUMPDEST PUSH2 0x5F PUSH2 0x116 JUMP JUMPDEST PUSH1 0x40 MLOAD PUSH2 0x6C SWAP2 SWAP1 PUSH2 0x309 JUMP JUMPDEST PUSH1 0x40 MLOAD DUP1 SWAP2 SUB SWAP1 RETURN JUMPDEST PUSH1 0x0 DUP2 CALLER PUSH1 0x40 MLOAD PUSH2 0x85 SWAP1 PUSH2 0x1A4 JUMP JUMPDEST PUSH2 0x90 SWAP3 SWAP2 SWAP1 PUSH2 0x349 JUMP JUMPDEST PUSH1 0x40 MLOAD DUP1 SWAP2 SUB SWAP1 PUSH1 0x0 CREATE DUP1 ISZERO DUP1 ISZERO PUSH2 0xAC JUMPI RETURNDATASIZE PUSH1 0x0 DUP1 RETURNDATACOPY RETURNDATASIZE PUSH1 0x0 REVERT JUMPDEST POP SWAP1 POP PUSH1 0x0 DUP2 SWAP1 DUP1 PUSH1 0x1 DUP2 SLOAD ADD DUP1 DUP3 SSTORE DUP1 SWAP2 POP POP PUSH1 0x1 SWAP1 SUB SWAP1 PUSH1 0x0 MSTORE PUSH1 0x20 PUSH1 0x0 KECCAK256 ADD PUSH1 0x0 SWAP1 SWAP2 SWAP1 SWAP2 SWAP1 SWAP2 PUSH2 0x100 EXP DUP2 SLOAD DUP2 PUSH20 0xFFFFFFFFFFFFFFFFFFFFFFFFFFFFFFFFFFFFFFFF MUL NOT AND SWAP1 DUP4 PUSH20 0xFFFFFFFFFFFFFFFFFFFFFFFFFFFFFFFFFFFFFFFF AND MUL OR SWAP1 SSTORE POP POP POP JUMP JUMPDEST PUSH1 0x60 PUSH1 0x0 DUP1 SLOAD DUP1 PUSH1 0x20 MUL PUSH1 0x20 ADD PUSH1 0x40 MLOAD SWAP1 DUP2 ADD PUSH1 0x40 MSTORE DUP1 SWAP3 SWAP2 SWAP1 DUP2 DUP2 MSTORE PUSH1 0x20 ADD DUP3 DUP1 SLOAD DUP1 ISZERO PUSH2 0x19A JUMPI PUSH1 0x20 MUL DUP3 ADD SWAP2 SWAP1 PUSH1 0x0 MSTORE PUSH1 0x20 PUSH1 0x0 KECCAK256 SWAP1 JUMPDEST DUP2 PUSH1 0x0 SWAP1 SLOAD SWAP1 PUSH2 0x100 EXP SWAP1 DIV PUSH20 0xFFFFFFFFFFFFFFFFFFFFFFFFFFFFFFFFFFFFFFFF AND PUSH20 0xFFFFFFFFFFFFFFFFFFFFFFFFFFFFFFFFFFFFFFFF AND DUP2 MSTORE PUSH1 0x20 ADD SWAP1 PUSH1 0x1 ADD SWAP1 DUP1 DUP4 GT PUSH2 0x150 JUMPI JUMPDEST POP POP POP POP POP SWAP1 POP SWAP1 JUMP JUMPDEST PUSH2 0x122F DUP1 PUSH2 0x373 DUP4 CODECOPY ADD SWAP1 JUMP JUMPDEST PUSH1 0x0 DUP1 REVERT JUMPDEST PUSH1 0x0 DUP2 SWAP1 POP SWAP2 SWAP1 POP JUMP JUMPDEST PUSH2 0x1C9 DUP2 PUSH2 0x1B6 JUMP JUMPDEST DUP2 EQ PUSH2 0x1D4 JUMPI PUSH1 0x0 DUP1 REVERT JUMPDEST POP JUMP JUMPDEST PUSH1 0x0 DUP2 CALLDATALOAD SWAP1 POP PUSH2 0x1E6 DUP2 PUSH2 0x1C0 JUMP JUMPDEST SWAP3 SWAP2 POP POP JUMP JUMPDEST PUSH1 0x0 PUSH1 0x20 DUP3 DUP5 SUB SLT ISZERO PUSH2 0x202 JUMPI PUSH2 0x201 PUSH2 0x1B1 JUMP JUMPDEST JUMPDEST PUSH1 0x0 PUSH2 0x210 DUP5 DUP3 DUP6 ADD PUSH2 0x1D7 JUMP JUMPDEST SWAP2 POP POP SWAP3 SWAP2 POP POP JUMP JUMPDEST PUSH1 0x0 DUP2 MLOAD SWAP1 POP SWAP2 SWAP1 POP JUMP JUMPDEST PUSH1 0x0 DUP3 DUP3 MSTORE PUSH1 0x20 DUP3 ADD SWAP1 POP SWAP3 SWAP2 POP POP JUMP JUMPDEST PUSH1 0x0 DUP2 SWAP1 POP PUSH1 0x20 DUP3 ADD SWAP1 POP SWAP2 SWAP1 POP JUMP JUMPDEST PUSH1 0x0 PUSH20 0xFFFFFFFFFFFFFFFFFFFFFFFFFFFFFFFFFFFFFFFF DUP3 AND SWAP1 POP SWAP2 SWAP1 POP JUMP JUMPDEST PUSH1 0x0 PUSH2 0x270 DUP3 PUSH2 0x245 JUMP JUMPDEST SWAP1 POP SWAP2 SWAP1 POP JUMP JUMPDEST PUSH2 0x280 DUP2 PUSH2 0x265 JUMP JUMPDEST DUP3 MSTORE POP POP JUMP JUMPDEST PUSH1 0x0 PUSH2 0x292 DUP4 DUP4 PUSH2 0x277 JUMP JUMPDEST PUSH1 0x20 DUP4 ADD SWAP1 POP SWAP3 SWAP2 POP POP JUMP JUMPDEST PUSH1 0x0 PUSH1 0x20 DUP3 ADD SWAP1 POP SWAP2 SWAP1 POP JUMP JUMPDEST PUSH1 0x0 PUSH2 0x2B6 DUP3 PUSH2 0x219 JUMP JUMPDEST PUSH2 0x2C0 DUP2 DUP6 PUSH2 0x224 JUMP JUMPDEST SWAP4 POP PUSH2 0x2CB DUP4 PUSH2 0x235 JUMP JUMPDEST DUP1 PUSH1 0x0 JUMPDEST DUP4 DUP2 LT ISZERO PUSH2 0x2FC JUMPI DUP2 MLOAD PUSH2 0x2E3 DUP9 DUP3 PUSH2 0x286 JUMP JUMPDEST SWAP8 POP PUSH2 0x2EE DUP4 PUSH2 0x29E JUMP JUMPDEST SWAP3 POP POP PUSH1 0x1 DUP2 ADD SWAP1 POP PUSH2 0x2CF JUMP JUMPDEST POP DUP6 SWAP4 POP POP POP POP SWAP3 SWAP2 POP POP JUMP JUMPDEST PUSH1 0x0 PUSH1 0x20 DUP3 ADD SWAP1 POP DUP2 DUP2 SUB PUSH1 0x0 DUP4 ADD MSTORE PUSH2 0x323 DUP2 DUP5 PUSH2 0x2AB JUMP JUMPDEST SWAP1 POP SWAP3 SWAP2 POP POP JUMP JUMPDEST PUSH2 0x334 DUP2 PUSH2 0x1B6 JUMP JUMPDEST DUP3 MSTORE POP POP JUMP JUMPDEST PUSH2 0x343 DUP2 PUSH2 0x265 JUMP JUMPDEST DUP3 MSTORE POP POP JUMP JUMPDEST PUSH1 0x0 PUSH1 0x40 DUP3 ADD SWAP1 POP PUSH2 0x35E PUSH1 0x0 DUP4 ADD DUP6 PUSH2 0x32B JUMP JUMPDEST PUSH2 0x36B PUSH1 0x20 DUP4 ADD DUP5 PUSH2 0x33A JUMP JUMPDEST SWAP4 SWAP3 POP POP POP JUMP INVALID PUSH1 0x80 PUSH1 0x40 MSTORE CALLVALUE DUP1 ISZERO PUSH3 0x11 JUMPI PUSH1 0x0 DUP1 REVERT JUMPDEST POP PUSH1 0x40 MLOAD PUSH3 0x122F CODESIZE SUB DUP1 PUSH3 0x122F DUP4 CODECOPY DUP2 DUP2 ADD PUSH1 0x40 MSTORE DUP2 ADD SWAP1 PUSH3 0x37 SWAP2 SWAP1 PUSH3 0x12B JUMP JUMPDEST DUP1 PUSH1 0x0 DUP1 PUSH2 0x100 EXP DUP2 SLOAD DUP2 PUSH20 0xFFFFFFFFFFFFFFFFFFFFFFFFFFFFFFFFFFFFFFFF MUL NOT AND SWAP1 DUP4 PUSH20 0xFFFFFFFFFFFFFFFFFFFFFFFFFFFFFFFFFFFFFFFF AND MUL OR SWAP1 SSTORE POP DUP2 PUSH1 0x2 DUP2 SWAP1 SSTORE POP POP POP PUSH3 0x172 JUMP JUMPDEST PUSH1 0x0 DUP1 REVERT JUMPDEST PUSH1 0x0 DUP2 SWAP1 POP SWAP2 SWAP1 POP JUMP JUMPDEST PUSH3 0xA0 DUP2 PUSH3 0x8B JUMP JUMPDEST DUP2 EQ PUSH3 0xAC JUMPI PUSH1 0x0 DUP1 REVERT JUMPDEST POP JUMP JUMPDEST PUSH1 0x0 DUP2 MLOAD SWAP1 POP PUSH3 0xC0 DUP2 PUSH3 0x95 JUMP JUMPDEST SWAP3 SWAP2 POP POP JUMP JUMPDEST PUSH1 0x0 PUSH20 0xFFFFFFFFFFFFFFFFFFFFFFFFFFFFFFFFFFFFFFFF DUP3 AND SWAP1 POP SWAP2 SWAP1 POP JUMP JUMPDEST PUSH1 0x0 PUSH3 0xF3 DUP3 PUSH3 0xC6 JUMP JUMPDEST SWAP1 POP SWAP2 SWAP1 POP JUMP JUMPDEST PUSH3 0x105 DUP2 PUSH3 0xE6 JUMP JUMPDEST DUP2 EQ PUSH3 0x111 JUMPI PUSH1 0x0 DUP1 REVERT JUMPDEST POP JUMP JUMPDEST PUSH1 0x0 DUP2 MLOAD SWAP1 POP PUSH3 0x125 DUP2 PUSH3 0xFA JUMP JUMPDEST SWAP3 SWAP2 POP POP JUMP JUMPDEST PUSH1 0x0 DUP1 PUSH1 0x40 DUP4 DUP6 SUB SLT ISZERO PUSH3 0x145 JUMPI PUSH3 0x144 PUSH3 0x86 JUMP JUMPDEST JUMPDEST PUSH1 0x0 PUSH3 0x155 DUP6 DUP3 DUP7 ADD PUSH3 0xAF JUMP JUMPDEST SWAP3 POP POP PUSH1 0x20 PUSH3 0x168 DUP6 DUP3 DUP7 ADD PUSH3 0x114 JUMP JUMPDEST SWAP2 POP POP SWAP3 POP SWAP3 SWAP1 POP JUMP JUMPDEST PUSH2 0x10AD DUP1 PUSH3 0x182 PUSH1 0x0 CODECOPY PUSH1 0x0 RETURN INVALID PUSH1 0x80 PUSH1 0x40 MSTORE PUSH1 0x4 CALLDATASIZE LT PUSH2 0x9C JUMPI PUSH1 0x0 CALLDATALOAD PUSH1 0xE0 SHR DUP1 PUSH4 0x81D12C58 GT PUSH2 0x64 JUMPI DUP1 PUSH4 0x81D12C58 EQ PUSH2 0x16B JUMPI DUP1 PUSH4 0x8DA5CB5B EQ PUSH2 0x1AC JUMPI DUP1 PUSH4 0xBB0C8298 EQ PUSH2 0x1D7 JUMPI DUP1 PUSH4 0xC2BB515F EQ PUSH2 0x202 JUMPI DUP1 PUSH4 0xD7BB99BA EQ PUSH2 0x22D JUMPI DUP1 PUSH4 0xD7D1BBDB EQ PUSH2 0x237 JUMPI PUSH2 0x9C JUMP JUMPDEST DUP1 PUSH4 0x3441006 EQ PUSH2 0xA1 JUMPI DUP1 PUSH4 0xBFD66C9 EQ PUSH2 0xBD JUMPI DUP1 PUSH4 0x3A1C30AC EQ PUSH2 0xE6 JUMPI DUP1 PUSH4 0x3FF1E05B EQ PUSH2 0x115 JUMPI DUP1 PUSH4 0x4FC3DBA6 EQ PUSH2 0x140 JUMPI JUMPDEST PUSH1 0x0 DUP1 REVERT JUMPDEST PUSH2 0xBB PUSH1 0x4 DUP1 CALLDATASIZE SUB DUP2 ADD SWAP1 PUSH2 0xB6 SWAP2 SWAP1 PUSH2 0x88E JUMP JUMPDEST PUSH2 0x260 JUMP JUMPDEST STOP JUMPDEST CALLVALUE DUP1 ISZERO PUSH2 0xC9 JUMPI PUSH1 0x0 DUP1 REVERT JUMPDEST POP PUSH2 0xE4 PUSH1 0x4 DUP1 CALLDATASIZE SUB DUP2 ADD SWAP1 PUSH2 0xDF SWAP2 SWAP1 PUSH2 0xA5F JUMP JUMPDEST PUSH2 0x3C9 JUMP JUMPDEST STOP JUMPDEST CALLVALUE DUP1 ISZERO PUSH2 0xF2 JUMPI PUSH1 0x0 DUP1 REVERT JUMPDEST POP PUSH2 0xFB PUSH2 0x4D0 JUMP JUMPDEST PUSH1 0x40 MLOAD PUSH2 0x10C SWAP6 SWAP5 SWAP4 SWAP3 SWAP2 SWAP1 PUSH2 0xAFE JUMP JUMPDEST PUSH1 0x40 MLOAD DUP1 SWAP2 SUB SWAP1 RETURN JUMPDEST CALLVALUE DUP1 ISZERO PUSH2 0x121 JUMPI PUSH1 0x0 DUP1 REVERT JUMPDEST POP PUSH2 0x12A PUSH2 0x517 JUMP JUMPDEST PUSH1 0x40 MLOAD PUSH2 0x137 SWAP2 SWAP1 PUSH2 0xB51 JUMP JUMPDEST PUSH1 0x40 MLOAD DUP1 SWAP2 SUB SWAP1 RETURN JUMPDEST CALLVALUE DUP1 ISZERO PUSH2 0x14C JUMPI PUSH1 0x0 DUP1 REVERT JUMPDEST POP PUSH2 0x155 PUSH2 0x51F JUMP JUMPDEST PUSH1 0x40 MLOAD PUSH2 0x162 SWAP2 SWAP1 PUSH2 0xB51 JUMP JUMPDEST PUSH1 0x40 MLOAD DUP1 SWAP2 SUB SWAP1 RETURN JUMPDEST CALLVALUE DUP1 ISZERO PUSH2 0x177 JUMPI PUSH1 0x0 DUP1 REVERT JUMPDEST POP PUSH2 0x192 PUSH1 0x4 DUP1 CALLDATASIZE SUB DUP2 ADD SWAP1 PUSH2 0x18D SWAP2 SWAP1 PUSH2 0x88E JUMP JUMPDEST PUSH2 0x525 JUMP JUMPDEST PUSH1 0x40 MLOAD PUSH2 0x1A3 SWAP6 SWAP5 SWAP4 SWAP3 SWAP2 SWAP1 PUSH2 0xC1E JUMP JUMPDEST PUSH1 0x40 MLOAD DUP1 SWAP2 SUB SWAP1 RETURN JUMPDEST CALLVALUE DUP1 ISZERO PUSH2 0x1B8 JUMPI PUSH1 0x0 DUP1 REVERT JUMPDEST POP PUSH2 0x1C1 PUSH2 0x620 JUMP JUMPDEST PUSH1 0x40 MLOAD PUSH2 0x1CE SWAP2 SWAP1 PUSH2 0xC78 JUMP JUMPDEST PUSH1 0x40 MLOAD DUP1 SWAP2 SUB SWAP1 RETURN JUMPDEST CALLVALUE DUP1 ISZERO PUSH2 0x1E3 JUMPI PUSH1 0x0 DUP1 REVERT JUMPDEST POP PUSH2 0x1EC PUSH2 0x644 JUMP JUMPDEST PUSH1 0x40 MLOAD PUSH2 0x1F9 SWAP2 SWAP1 PUSH2 0xB51 JUMP JUMPDEST PUSH1 0x40 MLOAD DUP1 SWAP2 SUB SWAP1 RETURN JUMPDEST CALLVALUE DUP1 ISZERO PUSH2 0x20E JUMPI PUSH1 0x0 DUP1 REVERT JUMPDEST POP PUSH2 0x217 PUSH2 0x64A JUMP JUMPDEST PUSH1 0x40 MLOAD PUSH2 0x224 SWAP2 SWAP1 PUSH2 0xB51 JUMP JUMPDEST PUSH1 0x40 MLOAD DUP1 SWAP2 SUB SWAP1 RETURN JUMPDEST PUSH2 0x235 PUSH2 0x657 JUMP JUMPDEST STOP JUMPDEST CALLVALUE DUP1 ISZERO PUSH2 0x243 JUMPI PUSH1 0x0 DUP1 REVERT JUMPDEST POP PUSH2 0x25E PUSH1 0x4 DUP1 CALLDATASIZE SUB DUP2 ADD SWAP1 PUSH2 0x259 SWAP2 SWAP1 PUSH2 0x88E JUMP JUMPDEST PUSH2 0x6D6 JUMP JUMPDEST STOP JUMPDEST PUSH1 0x0 DUP1 SLOAD SWAP1 PUSH2 0x100 EXP SWAP1 DIV PUSH20 0xFFFFFFFFFFFFFFFFFFFFFFFFFFFFFFFFFFFFFFFF AND PUSH20 0xFFFFFFFFFFFFFFFFFFFFFFFFFFFFFFFFFFFFFFFF AND CALLER PUSH20 0xFFFFFFFFFFFFFFFFFFFFFFFFFFFFFFFFFFFFFFFF AND EQ PUSH2 0x2B8 JUMPI PUSH1 0x0 DUP1 REVERT JUMPDEST PUSH1 0x3 DUP2 DUP2 SLOAD DUP2 LT PUSH2 0x2CC JUMPI PUSH2 0x2CB PUSH2 0xC93 JUMP JUMPDEST JUMPDEST SWAP1 PUSH1 0x0 MSTORE PUSH1 0x20 PUSH1 0x0 KECCAK256 SWAP1 PUSH1 0x5 MUL ADD PUSH1 0x2 ADD PUSH1 0x14 SWAP1 SLOAD SWAP1 PUSH2 0x100 EXP SWAP1 DIV PUSH1 0xFF AND ISZERO PUSH2 0x2F5 JUMPI PUSH1 0x0 DUP1 REVERT JUMPDEST PUSH1 0x0 PUSH1 0x3 DUP3 DUP2 SLOAD DUP2 LT PUSH2 0x30B JUMPI PUSH2 0x30A PUSH2 0xC93 JUMP JUMPDEST JUMPDEST SWAP1 PUSH1 0x0 MSTORE PUSH1 0x20 PUSH1 0x0 KECCAK256 SWAP1 PUSH1 0x5 MUL ADD SWAP1 POP PUSH1 0x2 PUSH1 0x4 SLOAD PUSH2 0x32A SWAP2 SWAP1 PUSH2 0xD20 JUMP JUMPDEST DUP2 PUSH1 0x3 ADD SLOAD GT PUSH2 0x339 JUMPI PUSH1 0x0 DUP1 REVERT JUMPDEST DUP1 PUSH1 0x2 ADD PUSH1 0x0 SWAP1 SLOAD SWAP1 PUSH2 0x100 EXP SWAP1 DIV PUSH20 0xFFFFFFFFFFFFFFFFFFFFFFFFFFFFFFFFFFFFFFFF AND PUSH20 0xFFFFFFFFFFFFFFFFFFFFFFFFFFFFFFFFFFFFFFFF AND PUSH2 0x8FC DUP3 PUSH1 0x1 ADD SLOAD SWAP1 DUP2 ISZERO MUL SWAP1 PUSH1 0x40 MLOAD PUSH1 0x0 PUSH1 0x40 MLOAD DUP1 DUP4 SUB DUP2 DUP6 DUP9 DUP9 CALL SWAP4 POP POP POP POP ISZERO DUP1 ISZERO PUSH2 0x3A7 JUMPI RETURNDATASIZE PUSH1 0x0 DUP1 RETURNDATACOPY RETURNDATASIZE PUSH1 0x0 REVERT JUMPDEST POP PUSH1 0x1 DUP2 PUSH1 0x2 ADD PUSH1 0x14 PUSH2 0x100 EXP DUP2 SLOAD DUP2 PUSH1 0xFF MUL NOT AND SWAP1 DUP4 ISZERO ISZERO MUL OR SWAP1 SSTORE POP POP POP JUMP JUMPDEST PUSH1 0x0 DUP1 SLOAD SWAP1 PUSH2 0x100 EXP SWAP1 DIV PUSH20 0xFFFFFFFFFFFFFFFFFFFFFFFFFFFFFFFFFFFFFFFF AND PUSH20 0xFFFFFFFFFFFFFFFFFFFFFFFFFFFFFFFFFFFFFFFF AND CALLER PUSH20 0xFFFFFFFFFFFFFFFFFFFFFFFFFFFFFFFFFFFFFFFF AND EQ PUSH2 0x421 JUMPI PUSH1 0x0 DUP1 REVERT JUMPDEST PUSH1 0x0 PUSH1 0x3 PUSH1 0x1 DUP2 PUSH1 0x1 DUP2 SLOAD ADD DUP1 DUP3 SSTORE DUP1 SWAP2 POP POP SUB SWAP1 PUSH1 0x0 MSTORE PUSH1 0x20 PUSH1 0x0 KECCAK256 SWAP1 PUSH1 0x5 MUL ADD SWAP1 POP DUP4 DUP2 PUSH1 0x0 ADD SWAP1 DUP2 PUSH2 0x456 SWAP2 SWAP1 PUSH2 0xF5D JUMP JUMPDEST POP DUP3 DUP2 PUSH1 0x1 ADD DUP2 SWAP1 SSTORE POP DUP2 DUP2 PUSH1 0x2 ADD PUSH1 0x0 PUSH2 0x100 EXP DUP2 SLOAD DUP2 PUSH20 0xFFFFFFFFFFFFFFFFFFFFFFFFFFFFFFFFFFFFFFFF MUL NOT AND SWAP1 DUP4 PUSH20 0xFFFFFFFFFFFFFFFFFFFFFFFFFFFFFFFFFFFFFFFF AND MUL OR SWAP1 SSTORE POP PUSH1 0x0 DUP2 PUSH1 0x2 ADD PUSH1 0x14 PUSH2 0x100 EXP DUP2 SLOAD DUP2 PUSH1 0xFF MUL NOT AND SWAP1 DUP4 ISZERO ISZERO MUL OR SWAP1 SSTORE POP PUSH1 0x0 DUP2 PUSH1 0x3 ADD DUP2 SWAP1 SSTORE POP POP POP POP POP JUMP JUMPDEST PUSH1 0x0 DUP1 PUSH1 0x0 DUP1 PUSH1 0x0 PUSH1 0x2 SLOAD PUSH1 0x4 SLOAD PUSH1 0x3 DUP1 SLOAD SWAP1 POP PUSH1 0x0 DUP1 SLOAD SWAP1 PUSH2 0x100 EXP SWAP1 DIV PUSH20 0xFFFFFFFFFFFFFFFFFFFFFFFFFFFFFFFFFFFFFFFF AND SELFBALANCE SWAP5 POP SWAP5 POP SWAP5 POP SWAP5 POP SWAP5 POP SWAP1 SWAP2 SWAP3 SWAP4 SWAP5 JUMP JUMPDEST PUSH1 0x0 SELFBALANCE SWAP1 POP SWAP1 JUMP JUMPDEST PUSH1 0x4 SLOAD DUP2 JUMP JUMPDEST PUSH1 0x3 DUP2 DUP2 SLOAD DUP2 LT PUSH2 0x535 JUMPI PUSH1 0x0 DUP1 REVERT JUMPDEST SWAP1 PUSH1 0x0 MSTORE PUSH1 0x20 PUSH1 0x0 KECCAK256 SWAP1 PUSH1 0x5 MUL ADD PUSH1 0x0 SWAP2 POP SWAP1 POP DUP1 PUSH1 0x0 ADD DUP1 SLOAD PUSH2 0x558 SWAP1 PUSH2 0xD80 JUMP JUMPDEST DUP1 PUSH1 0x1F ADD PUSH1 0x20 DUP1 SWAP2 DIV MUL PUSH1 0x20 ADD PUSH1 0x40 MLOAD SWAP1 DUP2 ADD PUSH1 0x40 MSTORE DUP1 SWAP3 SWAP2 SWAP1 DUP2 DUP2 MSTORE PUSH1 0x20 ADD DUP3 DUP1 SLOAD PUSH2 0x584 SWAP1 PUSH2 0xD80 JUMP JUMPDEST DUP1 ISZERO PUSH2 0x5D1 JUMPI DUP1 PUSH1 0x1F LT PUSH2 0x5A6 JUMPI PUSH2 0x100 DUP1 DUP4 SLOAD DIV MUL DUP4 MSTORE SWAP2 PUSH1 0x20 ADD SWAP2 PUSH2 0x5D1 JUMP JUMPDEST DUP3 ADD SWAP2 SWAP1 PUSH1 0x0 MSTORE PUSH1 0x20 PUSH1 0x0 KECCAK256 SWAP1 JUMPDEST DUP2 SLOAD DUP2 MSTORE SWAP1 PUSH1 0x1 ADD SWAP1 PUSH1 0x20 ADD DUP1 DUP4 GT PUSH2 0x5B4 JUMPI DUP3 SWAP1 SUB PUSH1 0x1F AND DUP3 ADD SWAP2 JUMPDEST POP POP POP POP POP SWAP1 DUP1 PUSH1 0x1 ADD SLOAD SWAP1 DUP1 PUSH1 0x2 ADD PUSH1 0x0 SWAP1 SLOAD SWAP1 PUSH2 0x100 EXP SWAP1 DIV PUSH20 0xFFFFFFFFFFFFFFFFFFFFFFFFFFFFFFFFFFFFFFFF AND SWAP1 DUP1 PUSH1 0x2 ADD PUSH1 0x14 SWAP1 SLOAD SWAP1 PUSH2 0x100 EXP SWAP1 DIV PUSH1 0xFF AND SWAP1 DUP1 PUSH1 0x3 ADD SLOAD SWAP1 POP DUP6 JUMP JUMPDEST PUSH1 0x0 DUP1 SLOAD SWAP1 PUSH2 0x100 EXP SWAP1 DIV PUSH20 0xFFFFFFFFFFFFFFFFFFFFFFFFFFFFFFFFFFFFFFFF AND DUP2 JUMP JUMPDEST PUSH1 0x2 SLOAD DUP2 JUMP JUMPDEST PUSH1 0x0 PUSH1 0x3 DUP1 SLOAD SWAP1 POP SWAP1 POP SWAP1 JUMP JUMPDEST PUSH1 0x2 SLOAD CALLVALUE GT PUSH2 0x665 JUMPI PUSH1 0x0 DUP1 REVERT JUMPDEST PUSH1 0x1 DUP1 PUSH1 0x0 CALLER PUSH20 0xFFFFFFFFFFFFFFFFFFFFFFFFFFFFFFFFFFFFFFFF AND PUSH20 0xFFFFFFFFFFFFFFFFFFFFFFFFFFFFFFFFFFFFFFFF AND DUP2 MSTORE PUSH1 0x20 ADD SWAP1 DUP2 MSTORE PUSH1 0x20 ADD PUSH1 0x0 KECCAK256 PUSH1 0x0 PUSH2 0x100 EXP DUP2 SLOAD DUP2 PUSH1 0xFF MUL NOT AND SWAP1 DUP4 ISZERO ISZERO MUL OR SWAP1 SSTORE POP PUSH1 0x4 PUSH1 0x0 DUP2 SLOAD DUP1 SWAP3 SWAP2 SWAP1 PUSH2 0x6CF SWAP1 PUSH2 0x102F JUMP JUMPDEST SWAP2 SWAP1 POP SSTORE POP JUMP JUMPDEST PUSH1 0x1 PUSH1 0x0 CALLER PUSH20 0xFFFFFFFFFFFFFFFFFFFFFFFFFFFFFFFFFFFFFFFF AND PUSH20 0xFFFFFFFFFFFFFFFFFFFFFFFFFFFFFFFFFFFFFFFF AND DUP2 MSTORE PUSH1 0x20 ADD SWAP1 DUP2 MSTORE PUSH1 0x20 ADD PUSH1 0x0 KECCAK256 PUSH1 0x0 SWAP1 SLOAD SWAP1 PUSH2 0x100 EXP SWAP1 DIV PUSH1 0xFF AND PUSH2 0x72C JUMPI PUSH1 0x0 DUP1 REVERT JUMPDEST PUSH1 0x3 DUP2 DUP2 SLOAD DUP2 LT PUSH2 0x740 JUMPI PUSH2 0x73F PUSH2 0xC93 JUMP JUMPDEST JUMPDEST SWAP1 PUSH1 0x0 MSTORE PUSH1 0x20 PUSH1 0x0 KECCAK256 SWAP1 PUSH1 0x5 MUL ADD PUSH1 0x4 ADD PUSH1 0x0 CALLER PUSH20 0xFFFFFFFFFFFFFFFFFFFFFFFFFFFFFFFFFFFFFFFF AND PUSH20 0xFFFFFFFFFFFFFFFFFFFFFFFFFFFFFFFFFFFFFFFF AND DUP2 MSTORE PUSH1 0x20 ADD SWAP1 DUP2 MSTORE PUSH1 0x20 ADD PUSH1 0x0 KECCAK256 PUSH1 0x0 SWAP1 SLOAD SWAP1 PUSH2 0x100 EXP SWAP1 DIV PUSH1 0xFF AND ISZERO PUSH2 0x7A6 JUMPI PUSH1 0x0 DUP1 REVERT JUMPDEST PUSH1 0x0 PUSH1 0x3 DUP3 DUP2 SLOAD DUP2 LT PUSH2 0x7BC JUMPI PUSH2 0x7BB PUSH2 0xC93 JUMP JUMPDEST JUMPDEST SWAP1 PUSH1 0x0 MSTORE PUSH1 0x20 PUSH1 0x0 KECCAK256 SWAP1 PUSH1 0x5 MUL ADD SWAP1 POP DUP1 PUSH1 0x3 ADD PUSH1 0x0 DUP2 SLOAD DUP1 SWAP3 SWAP2 SWAP1 PUSH2 0x7E1 SWAP1 PUSH2 0x102F JUMP JUMPDEST SWAP2 SWAP1 POP SSTORE POP PUSH1 0x1 DUP2 PUSH1 0x4 ADD PUSH1 0x0 CALLER PUSH20 0xFFFFFFFFFFFFFFFFFFFFFFFFFFFFFFFFFFFFFFFF AND PUSH20 0xFFFFFFFFFFFFFFFFFFFFFFFFFFFFFFFFFFFFFFFF AND DUP2 MSTORE PUSH1 0x20 ADD SWAP1 DUP2 MSTORE PUSH1 0x20 ADD PUSH1 0x0 KECCAK256 PUSH1 0x0 PUSH2 0x100 EXP DUP2 SLOAD DUP2 PUSH1 0xFF MUL NOT AND SWAP1 DUP4 ISZERO ISZERO MUL OR SWAP1 SSTORE POP POP POP JUMP JUMPDEST PUSH1 0x0 PUSH1 0x40 MLOAD SWAP1 POP SWAP1 JUMP JUMPDEST PUSH1 0x0 DUP1 REVERT JUMPDEST PUSH1 0x0 DUP1 REVERT JUMPDEST PUSH1 0x0 DUP2 SWAP1 POP SWAP2 SWAP1 POP JUMP JUMPDEST PUSH2 0x86B DUP2 PUSH2 0x858 JUMP JUMPDEST DUP2 EQ PUSH2 0x876 JUMPI PUSH1 0x0 DUP1 REVERT JUMPDEST POP JUMP JUMPDEST PUSH1 0x0 DUP2 CALLDATALOAD SWAP1 POP PUSH2 0x888 DUP2 PUSH2 0x862 JUMP JUMPDEST SWAP3 SWAP2 POP POP JUMP JUMPDEST PUSH1 0x0 PUSH1 0x20 DUP3 DUP5 SUB SLT ISZERO PUSH2 0x8A4 JUMPI PUSH2 0x8A3 PUSH2 0x84E JUMP JUMPDEST JUMPDEST PUSH1 0x0 PUSH2 0x8B2 DUP5 DUP3 DUP6 ADD PUSH2 0x879 JUMP JUMPDEST SWAP2 POP POP SWAP3 SWAP2 POP POP JUMP JUMPDEST PUSH1 0x0 DUP1 REVERT JUMPDEST PUSH1 0x0 DUP1 REVERT JUMPDEST PUSH1 0x0 PUSH1 0x1F NOT PUSH1 0x1F DUP4 ADD AND SWAP1 POP SWAP2 SWAP1 POP JUMP JUMPDEST PUSH32 0x4E487B7100000000000000000000000000000000000000000000000000000000 PUSH1 0x0 MSTORE PUSH1 0x41 PUSH1 0x4 MSTORE PUSH1 0x24 PUSH1 0x0 REVERT JUMPDEST PUSH2 0x90E DUP3 PUSH2 0x8C5 JUMP JUMPDEST DUP2 ADD DUP2 DUP2 LT PUSH8 0xFFFFFFFFFFFFFFFF DUP3 GT OR ISZERO PUSH2 0x92D JUMPI PUSH2 0x92C PUSH2 0x8D6 JUMP JUMPDEST JUMPDEST DUP1 PUSH1 0x40 MSTORE POP POP POP JUMP JUMPDEST PUSH1 0x0 PUSH2 0x940 PUSH2 0x844 JUMP JUMPDEST SWAP1 POP PUSH2 0x94C DUP3 DUP3 PUSH2 0x905 JUMP JUMPDEST SWAP2 SWAP1 POP JUMP JUMPDEST PUSH1 0x0 PUSH8 0xFFFFFFFFFFFFFFFF DUP3 GT ISZERO PUSH2 0x96C JUMPI PUSH2 0x96B PUSH2 0x8D6 JUMP JUMPDEST JUMPDEST PUSH2 0x975 DUP3 PUSH2 0x8C5 JUMP JUMPDEST SWAP1 POP PUSH1 0x20 DUP2 ADD SWAP1 POP SWAP2 SWAP1 POP JUMP JUMPDEST DUP3 DUP2 DUP4 CALLDATACOPY PUSH1 0x0 DUP4 DUP4 ADD MSTORE POP POP POP JUMP JUMPDEST PUSH1 0x0 PUSH2 0x9A4 PUSH2 0x99F DUP5 PUSH2 0x951 JUMP JUMPDEST PUSH2 0x936 JUMP JUMPDEST SWAP1 POP DUP3 DUP2 MSTORE PUSH1 0x20 DUP2 ADD DUP5 DUP5 DUP5 ADD GT ISZERO PUSH2 0x9C0 JUMPI PUSH2 0x9BF PUSH2 0x8C0 JUMP JUMPDEST JUMPDEST PUSH2 0x9CB DUP5 DUP3 DUP6 PUSH2 0x982 JUMP JUMPDEST POP SWAP4 SWAP3 POP POP POP JUMP JUMPDEST PUSH1 0x0 DUP3 PUSH1 0x1F DUP4 ADD SLT PUSH2 0x9E8 JUMPI PUSH2 0x9E7 PUSH2 0x8BB JUMP JUMPDEST JUMPDEST DUP2 CALLDATALOAD PUSH2 0x9F8 DUP5 DUP3 PUSH1 0x20 DUP7 ADD PUSH2 0x991 JUMP JUMPDEST SWAP2 POP POP SWAP3 SWAP2 POP POP JUMP JUMPDEST PUSH1 0x0 PUSH20 0xFFFFFFFFFFFFFFFFFFFFFFFFFFFFFFFFFFFFFFFF DUP3 AND SWAP1 POP SWAP2 SWAP1 POP JUMP JUMPDEST PUSH1 0x0 PUSH2 0xA2C DUP3 PUSH2 0xA01 JUMP JUMPDEST SWAP1 POP SWAP2 SWAP1 POP JUMP JUMPDEST PUSH2 0xA3C DUP2 PUSH2 0xA21 JUMP JUMPDEST DUP2 EQ PUSH2 0xA47 JUMPI PUSH1 0x0 DUP1 REVERT JUMPDEST POP JUMP JUMPDEST PUSH1 0x0 DUP2 CALLDATALOAD SWAP1 POP PUSH2 0xA59 DUP2 PUSH2 0xA33 JUMP JUMPDEST SWAP3 SWAP2 POP POP JUMP JUMPDEST PUSH1 0x0 DUP1 PUSH1 0x0 PUSH1 0x60 DUP5 DUP7 SUB SLT ISZERO PUSH2 0xA78 JUMPI PUSH2 0xA77 PUSH2 0x84E JUMP JUMPDEST JUMPDEST PUSH1 0x0 DUP5 ADD CALLDATALOAD PUSH8 0xFFFFFFFFFFFFFFFF DUP2 GT ISZERO PUSH2 0xA96 JUMPI PUSH2 0xA95 PUSH2 0x853 JUMP JUMPDEST JUMPDEST PUSH2 0xAA2 DUP7 DUP3 DUP8 ADD PUSH2 0x9D3 JUMP JUMPDEST SWAP4 POP POP PUSH1 0x20 PUSH2 0xAB3 DUP7 DUP3 DUP8 ADD PUSH2 0x879 JUMP JUMPDEST SWAP3 POP POP PUSH1 0x40 PUSH2 0xAC4 DUP7 DUP3 DUP8 ADD PUSH2 0xA4A JUMP JUMPDEST SWAP2 POP POP SWAP3 POP SWAP3 POP SWAP3 JUMP JUMPDEST PUSH2 0xAD7 DUP2 PUSH2 0x858 JUMP JUMPDEST DUP3 MSTORE POP POP JUMP JUMPDEST PUSH1 0x0 PUSH2 0xAE8 DUP3 PUSH2 0xA01 JUMP JUMPDEST SWAP1 POP SWAP2 SWAP1 POP JUMP JUMPDEST PUSH2 0xAF8 DUP2 PUSH2 0xADD JUMP JUMPDEST DUP3 MSTORE POP POP JUMP JUMPDEST PUSH1 0x0 PUSH1 0xA0 DUP3 ADD SWAP1 POP PUSH2 0xB13 PUSH1 0x0 DUP4 ADD DUP9 PUSH2 0xACE JUMP JUMPDEST PUSH2 0xB20 PUSH1 0x20 DUP4 ADD DUP8 PUSH2 0xACE JUMP JUMPDEST PUSH2 0xB2D PUSH1 0x40 DUP4 ADD DUP7 PUSH2 0xACE JUMP JUMPDEST PUSH2 0xB3A PUSH1 0x60 DUP4 ADD DUP6 PUSH2 0xAEF JUMP JUMPDEST PUSH2 0xB47 PUSH1 0x80 DUP4 ADD DUP5 PUSH2 0xACE JUMP JUMPDEST SWAP7 SWAP6 POP POP POP POP POP POP JUMP JUMPDEST PUSH1 0x0 PUSH1 0x20 DUP3 ADD SWAP1 POP PUSH2 0xB66 PUSH1 0x0 DUP4 ADD DUP5 PUSH2 0xACE JUMP JUMPDEST SWAP3 SWAP2 POP POP JUMP JUMPDEST PUSH1 0x0 DUP2 MLOAD SWAP1 POP SWAP2 SWAP1 POP JUMP JUMPDEST PUSH1 0x0 DUP3 DUP3 MSTORE PUSH1 0x20 DUP3 ADD SWAP1 POP SWAP3 SWAP2 POP POP JUMP JUMPDEST PUSH1 0x0 JUMPDEST DUP4 DUP2 LT ISZERO PUSH2 0xBA6 JUMPI DUP1 DUP3 ADD MLOAD DUP2 DUP5 ADD MSTORE PUSH1 0x20 DUP2 ADD SWAP1 POP PUSH2 0xB8B JUMP JUMPDEST DUP4 DUP2 GT ISZERO PUSH2 0xBB5 JUMPI PUSH1 0x0 DUP5 DUP5 ADD MSTORE JUMPDEST POP POP POP POP JUMP JUMPDEST PUSH1 0x0 PUSH2 0xBC6 DUP3 PUSH2 0xB6C JUMP JUMPDEST PUSH2 0xBD0 DUP2 DUP6 PUSH2 0xB77 JUMP JUMPDEST SWAP4 POP PUSH2 0xBE0 DUP2 DUP6 PUSH1 0x20 DUP7 ADD PUSH2 0xB88 JUMP JUMPDEST PUSH2 0xBE9 DUP2 PUSH2 0x8C5 JUMP JUMPDEST DUP5 ADD SWAP2 POP POP SWAP3 SWAP2 POP POP JUMP JUMPDEST PUSH2 0xBFD DUP2 PUSH2 0xA21 JUMP JUMPDEST DUP3 MSTORE POP POP JUMP JUMPDEST PUSH1 0x0 DUP2 ISZERO ISZERO SWAP1 POP SWAP2 SWAP1 POP JUMP JUMPDEST PUSH2 0xC18 DUP2 PUSH2 0xC03 JUMP JUMPDEST DUP3 MSTORE POP POP JUMP JUMPDEST PUSH1 0x0 PUSH1 0xA0 DUP3 ADD SWAP1 POP DUP2 DUP2 SUB PUSH1 0x0 DUP4 ADD MSTORE PUSH2 0xC38 DUP2 DUP9 PUSH2 0xBBB JUMP JUMPDEST SWAP1 POP PUSH2 0xC47 PUSH1 0x20 DUP4 ADD DUP8 PUSH2 0xACE JUMP JUMPDEST PUSH2 0xC54 PUSH1 0x40 DUP4 ADD DUP7 PUSH2 0xBF4 JUMP JUMPDEST PUSH2 0xC61 PUSH1 0x60 DUP4 ADD DUP6 PUSH2 0xC0F JUMP JUMPDEST PUSH2 0xC6E PUSH1 0x80 DUP4 ADD DUP5 PUSH2 0xACE JUMP JUMPDEST SWAP7 SWAP6 POP POP POP POP POP POP JUMP JUMPDEST PUSH1 0x0 PUSH1 0x20 DUP3 ADD SWAP1 POP PUSH2 0xC8D PUSH1 0x0 DUP4 ADD DUP5 PUSH2 0xAEF JUMP JUMPDEST SWAP3 SWAP2 POP POP JUMP JUMPDEST PUSH32 0x4E487B7100000000000000000000000000000000000000000000000000000000 PUSH1 0x0 MSTORE PUSH1 0x32 PUSH1 0x4 MSTORE PUSH1 0x24 PUSH1 0x0 REVERT JUMPDEST PUSH32 0x4E487B7100000000000000000000000000000000000000000000000000000000 PUSH1 0x0 MSTORE PUSH1 0x12 PUSH1 0x4 MSTORE PUSH1 0x24 PUSH1 0x0 REVERT JUMPDEST PUSH32 0x4E487B7100000000000000000000000000000000000000000000000000000000 PUSH1 0x0 MSTORE PUSH1 0x11 PUSH1 0x4 MSTORE PUSH1 0x24 PUSH1 0x0 REVERT JUMPDEST PUSH1 0x0 PUSH2 0xD2B DUP3 PUSH2 0x858 JUMP JUMPDEST SWAP2 POP PUSH2 0xD36 DUP4 PUSH2 0x858 JUMP JUMPDEST SWAP3 POP DUP3 PUSH2 0xD46 JUMPI PUSH2 0xD45 PUSH2 0xCC2 JUMP JUMPDEST JUMPDEST DUP3 DUP3 DIV SWAP1 POP SWAP3 SWAP2 POP POP JUMP JUMPDEST PUSH32 0x4E487B7100000000000000000000000000000000000000000000000000000000 PUSH1 0x0 MSTORE PUSH1 0x22 PUSH1 0x4 MSTORE PUSH1 0x24 PUSH1 0x0 REVERT JUMPDEST PUSH1 0x0 PUSH1 0x2 DUP3 DIV SWAP1 POP PUSH1 0x1 DUP3 AND DUP1 PUSH2 0xD98 JUMPI PUSH1 0x7F DUP3 AND SWAP2 POP JUMPDEST PUSH1 0x20 DUP3 LT DUP2 SUB PUSH2 0xDAB JUMPI PUSH2 0xDAA PUSH2 0xD51 JUMP JUMPDEST JUMPDEST POP SWAP2 SWAP1 POP JUMP JUMPDEST PUSH1 0x0 DUP2 SWAP1 POP DUP2 PUSH1 0x0 MSTORE PUSH1 0x20 PUSH1 0x0 KECCAK256 SWAP1 POP SWAP2 SWAP1 POP JUMP JUMPDEST PUSH1 0x0 PUSH1 0x20 PUSH1 0x1F DUP4 ADD DIV SWAP1 POP SWAP2 SWAP1 POP JUMP JUMPDEST PUSH1 0x0 DUP3 DUP3 SHL SWAP1 POP SWAP3 SWAP2 POP POP JUMP JUMPDEST PUSH1 0x0 PUSH1 0x8 DUP4 MUL PUSH2 0xE13 PUSH32 0xFFFFFFFFFFFFFFFFFFFFFFFFFFFFFFFFFFFFFFFFFFFFFFFFFFFFFFFFFFFFFFFF DUP3 PUSH2 0xDD6 JUMP JUMPDEST PUSH2 0xE1D DUP7 DUP4 PUSH2 0xDD6 JUMP JUMPDEST SWAP6 POP DUP1 NOT DUP5 AND SWAP4 POP DUP1 DUP7 AND DUP5 OR SWAP3 POP POP POP SWAP4 SWAP3 POP POP POP JUMP JUMPDEST PUSH1 0x0 DUP2 SWAP1 POP SWAP2 SWAP1 POP JUMP JUMPDEST PUSH1 0x0 PUSH2 0xE5A PUSH2 0xE55 PUSH2 0xE50 DUP5 PUSH2 0x858 JUMP JUMPDEST PUSH2 0xE35 JUMP JUMPDEST PUSH2 0x858 JUMP JUMPDEST SWAP1 POP SWAP2 SWAP1 POP JUMP JUMPDEST PUSH1 0x0 DUP2 SWAP1 POP SWAP2 SWAP1 POP JUMP JUMPDEST PUSH2 0xE74 DUP4 PUSH2 0xE3F JUMP JUMPDEST PUSH2 0xE88 PUSH2 0xE80 DUP3 PUSH2 0xE61 JUMP JUMPDEST DUP5 DUP5 SLOAD PUSH2 0xDE3 JUMP JUMPDEST DUP3 SSTORE POP POP POP POP JUMP JUMPDEST PUSH1 0x0 SWAP1 JUMP JUMPDEST PUSH2 0xE9D PUSH2 0xE90 JUMP JUMPDEST PUSH2 0xEA8 DUP2 DUP5 DUP5 PUSH2 0xE6B JUMP JUMPDEST POP POP POP JUMP JUMPDEST JUMPDEST DUP2 DUP2 LT ISZERO PUSH2 0xECC JUMPI PUSH2 0xEC1 PUSH1 0x0 DUP3 PUSH2 0xE95 JUMP JUMPDEST PUSH1 0x1 DUP2 ADD SWAP1 POP PUSH2 0xEAE JUMP JUMPDEST POP POP JUMP JUMPDEST PUSH1 0x1F DUP3 GT ISZERO PUSH2 0xF11 JUMPI PUSH2 0xEE2 DUP2 PUSH2 0xDB1 JUMP JUMPDEST PUSH2 0xEEB DUP5 PUSH2 0xDC6 JUMP JUMPDEST DUP2 ADD PUSH1 0x20 DUP6 LT ISZERO PUSH2 0xEFA JUMPI DUP2 SWAP1 POP JUMPDEST PUSH2 0xF0E PUSH2 0xF06 DUP6 PUSH2 0xDC6 JUMP JUMPDEST DUP4 ADD DUP3 PUSH2 0xEAD JUMP JUMPDEST POP POP JUMPDEST POP POP POP JUMP JUMPDEST PUSH1 0x0 DUP3 DUP3 SHR SWAP1 POP SWAP3 SWAP2 POP POP JUMP JUMPDEST PUSH1 0x0 PUSH2 0xF34 PUSH1 0x0 NOT DUP5 PUSH1 0x8 MUL PUSH2 0xF16 JUMP JUMPDEST NOT DUP1 DUP4 AND SWAP2 POP POP SWAP3 SWAP2 POP POP JUMP JUMPDEST PUSH1 0x0 PUSH2 0xF4D DUP4 DUP4 PUSH2 0xF23 JUMP JUMPDEST SWAP2 POP DUP3 PUSH1 0x2 MUL DUP3 OR SWAP1 POP SWAP3 SWAP2 POP POP JUMP JUMPDEST PUSH2 0xF66 DUP3 PUSH2 0xB6C JUMP JUMPDEST PUSH8 0xFFFFFFFFFFFFFFFF DUP2 GT ISZERO PUSH2 0xF7F JUMPI PUSH2 0xF7E PUSH2 0x8D6 JUMP JUMPDEST JUMPDEST PUSH2 0xF89 DUP3 SLOAD PUSH2 0xD80 JUMP JUMPDEST PUSH2 0xF94 DUP3 DUP3 DUP6 PUSH2 0xED0 JUMP JUMPDEST PUSH1 0x0 PUSH1 0x20 SWAP1 POP PUSH1 0x1F DUP4 GT PUSH1 0x1 DUP2 EQ PUSH2 0xFC7 JUMPI PUSH1 0x0 DUP5 ISZERO PUSH2 0xFB5 JUMPI DUP3 DUP8 ADD MLOAD SWAP1 POP JUMPDEST PUSH2 0xFBF DUP6 DUP3 PUSH2 0xF41 JUMP JUMPDEST DUP7 SSTORE POP PUSH2 0x1027 JUMP JUMPDEST PUSH1 0x1F NOT DUP5 AND PUSH2 0xFD5 DUP7 PUSH2 0xDB1 JUMP JUMPDEST PUSH1 0x0 JUMPDEST DUP3 DUP2 LT ISZERO PUSH2 0xFFD JUMPI DUP5 DUP10 ADD MLOAD DUP3 SSTORE PUSH1 0x1 DUP3 ADD SWAP2 POP PUSH1 0x20 DUP6 ADD SWAP5 POP PUSH1 0x20 DUP2 ADD SWAP1 POP PUSH2 0xFD8 JUMP JUMPDEST DUP7 DUP4 LT ISZERO PUSH2 0x101A JUMPI DUP5 DUP10 ADD MLOAD PUSH2 0x1016 PUSH1 0x1F DUP10 AND DUP3 PUSH2 0xF23 JUMP JUMPDEST DUP4 SSTORE POP JUMPDEST PUSH1 0x1 PUSH1 0x2 DUP9 MUL ADD DUP9 SSTORE POP POP POP JUMPDEST POP POP POP POP POP POP JUMP JUMPDEST PUSH1 0x0 PUSH2 0x103A DUP3 PUSH2 0x858 JUMP JUMPDEST SWAP2 POP PUSH32 0xFFFFFFFFFFFFFFFFFFFFFFFFFFFFFFFFFFFFFFFFFFFFFFFFFFFFFFFFFFFFFFFF DUP3 SUB PUSH2 0x106C JUMPI PUSH2 0x106B PUSH2 0xCF1 JUMP JUMPDEST JUMPDEST PUSH1 0x1 DUP3 ADD SWAP1 POP SWAP2 SWAP1 POP JUMP INVALID LOG2 PUSH5 0x6970667358 0x22 SLT KECCAK256 0xFC SWAP10 ISZERO SWAP15 0xEC 0xD3 PUSH24 0xAECC179F5547FF8551AE581A780A103D05DB09C9F68E4ED5 PUSH14 0x64736F6C634300080F0033A26469 PUSH17 0x6673582212206349B02E03263C044D4FF2 0xF7 0xC8 0x4D EXTCODESIZE PC CALLDATACOPY RETURNDATASIZE JUMPI SWAP3 0xBE 0xF8 0xAB CALLDATASIZE PUSH15 0xCCF40B0C63D49064736F6C63430008 0xF STOP CALLER "},"gasEstimates":{"creation":{"codeDepositCost":"1118200","executionCost":"1160","totalCost":"1119360"},"external":{"createCrowdFunding(uint256)":"infinite","getListOfCrowdFunding()":"infinite"}},"methodIdentifiers":{"createCrowdFunding(uint256)":"60f796a1","getListOfCrowdFunding()":"9e36b71d"}},"storageLayout":{"storage":[{"astId":4,"contract":"crowdFunding.sol:crowdFundingFactory","label":"listOfCrowdFunding","offset":0,"slot":"0","type":"t_array(t_address)dyn_storage"}],"types":{"t_address":{"encoding":"inplace","label":"address","numberOfBytes":"20"},"t_array(t_address)dyn_storage":{"base":"t_address","encoding":"dynamic_array","label":"address[]","numberOfBytes":"32"}}},"userdoc":{"kind":"user","methods":{},"version":1}}